:020000040800F2
:1000000000000220F13B0008853B0008913B0008FE
:10001000973B00089D3B0008A33B00080000000040
:10002000000000000000000000000000A93B0008E4
:10003000B53B000800000000C13B0008CD3B0008B4
:10004000413C0008413C0008413C0008413C00089C
:10005000413C0008413C0008413C0008413C00088C
:10006000413C0008413C0008413C0008413C00087C
:10007000413C0008413C0008413C0008413C00086C
:10008000413C0008413C0008413C000800000000E1
:10009000000000000000000000000000413C0008DB
:1000A000413C0008413C0008413C0008413C00083C
:1000B000413C0008413C0008413C0008413C00082C
:1000C000413C0008413C0008413C0008413C00081C
:1000D000413C0008413C0008413C00080000000091
:1000E000413C0008413C0008413C00080000000081
:1000F000000000000000000000000000413C00087B
:1001000000000000413C0008413C0008413C000860
:1001100000000000000000000000000000000000DF
:10012000413C0008413C0008413C0008413C0008BB
:10013000413C00080000000000000000000000003A
:10014000000000000000000000000000413C00082A
:10015000413C0008413C0008413C0008413C00088B
:10016000413C0008413C0008000000000000000085
:10017000000000000000000000000000000000007F
:1001800000000000413C00080000000000000000EA
:08019000413C0008413C00085D
:100198000348044B834202D0034B03B1184770470E
:1001A800142E0020142E00200000000005480649E7
:1001B800091A891001EBD171491002D0034B03B120
:1001C80018477047142E0020142E0020000000004D
:1001D80010B5064C237843B9FFF7DAFF044B13B187
:1001E8000448AFF300800123237010BD142E0020B3
:1001F80000000000443C000808B5044B1BB104494A
:100208000448AFF30080BDE80840CFE700000000D5
:10021800182E0020443C000881F0004102E000BF95
:1002280083F0004330B54FEA41044FEA430594EAAE
:10023800050F08BF90EA020F1FBF54EA000C55EAE9
:10024800020C7FEA645C7FEA655C00F0E2804FEABA
:100258005454D4EB5555B8BF6D420CDD2C4480EA9C
:10026800020281EA030382EA000083EA010180EACC
:10027800020281EA0303362D88BF30BD11F0004F1A
:100288004FEA01314FF4801C4CEA113102D0404250
:1002980061EB410113F0004F4FEA03334CEA13338B
:1002A80002D0524263EB430394EA050F00F0A780A3
:1002B800A4F10104D5F1200E0DDB02FA0EFC22FA9E
:1002C80005F2801841F1000103FA0EF2801843FA92
:1002D80005F359410EE0A5F120050EF1200E012A83
:1002E80003FA0EFC28BF4CF0020C43FA05F3C018C1
:1002F80051EBE37101F0004507D54FF0000EDCF13A
:10030800000C7EEB00006EEB0101B1F5801F1BD3E2
:10031800B1F5001F0CD349085FEA30004FEA3C0CE6
:1003280004F101044FEA445212F5800F80F09A80DC
:10033800BCF1004F08BF5FEA500C50F1000041EBE0
:10034800045141EA050130BD5FEA4C0C404141EBE4
:10035800010111F4801FA4F10104E9D191F0000F0B
:1003680004BF01460020B1FA81F308BF2033A3F18E
:100378000B03B3F120020CDA0C3208DD02F1140C85
:10038800C2F10C0201FA0CF021FA02F10CE002F1C0
:100398001402D8BFC2F1200C01FA02F120FA0CFCB9
:1003A800DCBF41EA0C019040E41AA2BF01EB045102
:1003B800294330BD6FEA04041F3C1CDA0C340EDC00
:1003C80004F11404C4F1200220FA04F001FA02F343
:1003D80040EA030021FA04F345EA030130BDC4F101
:1003E8000C04C4F1200220FA02F001FA04F340EAF6
:1003F8000300294630BD21FA04F0294630BD94F0A7
:10040800000F83F4801306BF81F480110134013D8D
:100418004EE77FEA645C18BF7FEA655C29D094EAFE
:10042800050F08BF90EA020F05D054EA000C04BF7C
:100438001946104630BD91EA030F1EBF0021002067
:1004480030BD5FEA545C05D14000494128BF41F006
:10045800004130BD14F580043CBF01F5801130BD6A
:1004680001F0004545F0FE4141F470014FF00000F5
:1004780030BD7FEA645C1ABF194610467FEA655CA6
:100488001CBF0B46024650EA013406BF52EA033548
:1004980091EA030F41F4002130BD00BF90F0000F36
:1004A80004BF0021704730B54FF4806404F1320472
:1004B8004FF000054FF0000150E700BF90F0000F2B
:1004C80004BF0021704730B54FF4806404F1320452
:1004D80010F0004548BF40424FF000013EE700BF22
:1004E80042004FEAE2014FEA31014FEA02701FBFB2
:1004F80012F07F4393F07F4F81F06051704732F0E4
:100508007F4208BF704793F07F4F04BF41F400213A
:10051800704730B54FF4607401F0004521F0004198
:100528001CE700BF50EA010208BF704730B54FF022
:1005380000050AE050EA010208BF704730B511F023
:10054800004502D5404261EB41014FF4806404F15B
:1005580032045FEA915C3FF4D8AE4FF003025FEAE1
:10056800DC0C18BF03325FEADC0C18BF033202EB65
:10057800DC02C2F1200300FA03FC20FA02F001FABF
:1005880003FE40EA0E0021FA02F11444BDE600BF62
:100598004A0011D212F5001211D20DD56FF47873FA
:1005A800B3EB62520ED44FEAC12343F0004343EA4F
:1005B800505323FA02F070474FF00000704750EA9A
:1005C800013002D14FF0FF3070474FF00000704704
:1005D80053B94AB9002908BF00281CBF4FF0FF31A2
:1005E8004FF0FF3000F072B9ADF1080C6DE904CEA0
:1005F80000F006F8DDF804E0DDE9022304B07047F6
:100608002DE9F047089E04468846002B4BD18A42C4
:10061800154667D9B2FA82F24AB1C2F1200701FA47
:1006280002F320FA07F7954047EA030894404FEA97
:10063800154E230CB8FBFEF71FFA85FC0EFB178836
:1006480043EA084307FB0CF1994209D9EB1807F173
:10065800FF3080F01B81994240F21881023F2B4401
:100668005B1AA4B2B3FBFEF00EFB103344EA03445A
:1006780000FB0CFCA44509D92C1900F1FF3380F0CC
:100688000781A44540F2048102382C4440EA07401F
:10069800A4EB0C0400271EB1D4400023C6E9004394
:1006A8003946BDE8F0878B4209D9002E00F0EB806F
:1006B8000027C6E9000138463946BDE8F087B3FA95
:1006C80083F7002F47D18B4202D3824200F2FA808F
:1006D800841A61EB030301209846002EE0D0C6E996
:1006E8000048DDE702B9FFDEB2FA82F2002A40F0E4
:1006F8008F80491B4FEA154E1FFA85F80127B1FB79
:10070800FEFC230C0EFB1C1143EA014308FB0CF111
:10071800994207D9EB180CF1FF3002D2994200F246
:10072800CD808446591AA3B2B1FBFEF00EFB10141B
:1007380043EA044408FB00F8A04507D92C1900F146
:10074800FF3302D2A04500F2B6801846A4EB080495
:1007580040EA0C409FE7C7F1200CBB4022FA0CFE90
:100768004EEA030E01FA07F420FA0CF521FA0CF30D
:100778004FEA1E482543B3FBF8F92C0C08FB193344
:100788001FFA8EFA44EA034309FB0AF49C4202FA70
:1007980007F200FA07F10BD91EEB030309F1FF304A
:1007A80080F087809C4240F28480A9F1020973445A
:1007B8001B1BADB2B3FBF8F008FB103345EA03444A
:1007C80000FB0AFAA24508D91EEB040400F1FF3326
:1007D8006BD2A24569D90238744440EA0940A0FBAB
:1007E8000289A4EB0A044C45C2464B4654D351D067
:1007F800002E69D0B1EB0A0564EB030404FA0CFC83
:10080800FD40FC404CEA0505C6E90054002747E7CF
:10081800C2F1200320FA03F7954001FA02F021FA09
:1008280003F34FEA154E3843010CB3FBFEF71FFAEA
:1008380085F80EFB173341EA034107FB08F38B42A7
:1008480004FA02F407D9691807F1FF3C2FD28B424A
:100858002DD9023F2944CB1A81B2B3FBFEF00EFB1F
:10086800103341EA034100FB08F38B4207D96918AA
:1008780000F1FF3C17D28B4215D902382944C91A16
:1008880040EA07473BE73746304609E70746E7E6C9
:100898001846FBE64145ABD2B8EB020A69EB0E02FB
:1008A80001381346A4E76046E9E7184695E7674626
:1008B800D1E781467CE702382C4447E7ACF1020CCB
:1008C8002B442FE7384608E73746E9E6704700BF6C
:1008D80070B50D4E0D4D761BB61006D000240134B0
:1008E80055F8043B9847A642F9D1094E094D761BA5
:1008F80003F0A4F9B61006D00024013455F8043BDF
:100908009847A642F9D170BDF43C0008F43C0008B1
:10091800F83C0008F43C0008F0B4860743D0541EA5
:10092800002A3ED0CAB2034602E014F1FF3438D39D
:1009380003F8012B9D07F8D1032C2BD9CDB245EA3A
:1009480005250F2C45EA054516D9A4F110073F09DE
:1009580003F1200606EB071603F1100242E90455DD
:1009680042E902551032B242F8D104F00F040137BF
:10097800032C03EB07130DD91E462246043A032A1B
:1009880046F8045BFAD8221F22F00302043213440B
:1009980004F003042CB1C9B21C4403F8011B9C42A7
:1009A800FBD1F0BC704714460346C5E780B500AFDD
:1009B8000E4B1B680D4A43F4007313600B4B1B6806
:1009C8000A4A43F480631360084B1B68074A43F4E0
:1009D80080731360032000F029F9002000F008F864
:1009E80003F0A6F80023184680BD00BF003C024073
:1009F80080B582B000AF7860124B1A68124B1B7832
:100A080019464FF47A73B3FBF1F3B2FBF3F31846CC
:100A180000F033F90346002B01D001230EE07B6878
:100A28000F2B0AD8002279684FF0FF3000F009F93F
:100A3800064A7B681360002300E001231846083744
:100A4800BD4680BD102E00200400002000000020BC
:100A580080B400AF054B1B781A46054B1B6813443E
:100A6800034A136000BFBD4680BC704704000020E5
:100A7800302E002080B400AF024B1B681846BD46DC
:100A880080BC7047302E002080B584B000AF7860FD
:100A9800FFF7F0FFB8607B68FB60FB68B3F1FF3FCE
:100AA80005D0094B1B781A46FB681344FB6000BF4E
:100AB800FFF7E0FF0246BB68D31AFA689A42F7D8F4
:100AC80000BF1037BD4680BD0400002080B485B04B
:100AD80000AF78607B6803F00703FB600C4BDB68B2
:100AE800BB60BA684FF6FF031340BB60FB681A028D
:100AF800BB68134343F0BF6343F40033BB60044A4D
:100B0800BB68D36000BF1437BD4680BC704700BFC8
:100B180000ED00E080B400AF044BDB681B0A03F073
:100B280007031846BD4680BC704700BF00ED00E0D3
:100B380080B483B000AF03463960FB7197F9073082
:100B4800002B0ADB3B68DAB20C4997F9073012012F
:100B5800D2B20B4483F800230AE03B68DAB20849B2
:100B6800FB7903F00F03043B1201D2B20B441A764F
:100B780000BF0C37BD4680BC704700BF00E100E0F5
:100B880000ED00E080B489B000AFF860B9607A6029
:100B9800FB6803F00703FB61FB69C3F10703042B40
:100BA80028BF0423BB61FB690433062B02D9FB6908
:100BB800033B00E000237B614FF0FF32BB6902FA80
:100BC80003F3DA43BB681A407B699A404FF0FF3160
:100BD8007B6901FA03F3D9437B680B40134318463A
:100BE8002437BD4680BC704780B582B000AF7860BE
:100BF8007B68013BB3F1807F01D301230FE00A4AF0
:100C08007B68013B53600F214FF0FF30FFF790FFE7
:100C1800054B00229A60044B07221A6000231846ED
:100C28000837BD4680BD00BF10E000E080B582B047
:100C380000AF78607868FFF749FF00BF0837BD4606
:100C480080BD80B586B000AF0346B9607A60FB739B
:100C580000237B61FFF75EFF78617A68B96878697D
:100C6800FFF790FF024697F90F3011461846FFF735
:100C78005FFF00BF1837BD4680BD80B582B000AFAA
:100C880078607868FFF7B0FF034618460837BD4616
:100C980080BD000080B489B000AF7860396000235F
:100CA8007B6100233B610023BB610023FB6159E1A9
:100CB8000122FB6902FA03F37B613B681B687A69CE
:100CC80013403B613A697B699A4240F048813B682E
:100CD8005B68012B0BD03B685B68022B07D03B6835
:100CE8005B68112B03D03B685B68122B30D17B68A3
:100CF8009B68BB61FB695B00032202FA03F3DB43D9
:100D0800BA691340BB613B68DA68FB695B0002FAA9
:100D180003F3BA691343BB617B68BA699A607B685D
:100D28005B68BB610122FB6902FA03F3DB43BA6922
:100D38001340BB613B685B681B0903F00102FB6958
:100D480002FA03F3BA691343BB617B68BA695A6054
:100D58007B68DB68BB61FB695B00032202FA03F373
:100D6800DB43BA691340BB613B689A68FB695B0067
:100D780002FA03F3BA691343BB617B68BA69DA60A4
:100D88003B685B68022B03D03B685B68122B23D15E
:100D9800FB69DA087B68083253F82230BB61FB69CB
:100DA80003F007039B000F2202FA03F3DB43BA693F
:100DB8001340BB613B681A69FB6903F007039B009A
:100DC80002FA03F3BA691343BB61FB69DA087B686B
:100DD8000832B96943F822107B681B68BB61FB695C
:100DE8005B00032202FA03F3DB43BA691340BB61D9
:100DF8003B685B6803F00302FB695B0002FA03F3DC
:100E0800BA691343BB617B68BA691A603B685B685F
:100E180003F08053002B00F0A2800023FB60564BA8
:100E28005B6C554A43F480435364534B5B6C03F447
:100E38008043FB60FB68514AFB699B08023352F808
:100E48002330BB61FB6903F003039B000F2202FA06
:100E580003F3DB43BA691340BB617B68484A93429A
:100E680019D07B68474A934213D07B68464A93421D
:100E78000DD07B68454A934207D07B68444A934229
:100E880001D1042308E0072306E0032304E002233A
:100E980002E0012300E00023FA6902F00302920055
:100EA8009340BA691343BB613449FB699B08023319
:100EB800BA6941F82320374B1B68BB613B69DB43A8
:100EC800BA691340BB613B685B6803F48033002B4D
:100ED80003D0BA693B691343BB612E4ABB691360EF
:100EE8002C4B5B68BB613B69DB43BA691340BB6150
:100EF8003B685B6803F40033002B03D0BA693B6995
:100F08001343BB61234ABB695360224B9B68BB6197
:100F18003B69DB43BA691340BB613B685B6803F418
:100F28008013002B03D0BA693B691343BB61194A8C
:100F3800BB699360174BDB68BB613B69DB43BA69EC
:100F48001340BB613B685B6803F40013002B03D0BC
:100F5800BA693B691343BB610E4ABB69D360FB693D
:100F68000133FB61FB690F2B7FF6A2AE00BF24376C
:100F7800BD4680BC704700BF0038024000380140C1
:100F8800000002400004024000080240000C024039
:100F980000100240003C014080B483B000AF78608C
:100FA8000B467B8013467B707B78002B03D07A88B6
:100FB8007B689A6103E07B881A047B689A6100BFAA
:100FC8000C37BD4680BC704780B584B000AF7860F0
:100FD8007B68002B01D101231FE17B6893F83D302A
:100FE800DBB2002B06D17B68002283F83C207868AE
:100FF80001F0FCFA7B68242283F83D207B681B689B
:101008001A687B681B6822F001021A607B681B68FB
:101018001A687B681B6842F400421A607B681B6888
:101028001A687B681B6822F400421A6001F0D0F944
:10103800F8607B685B687B4A934207D8FB687A4A0A
:10104800934294BF01230023DBB206E0FB68774A92
:10105800934294BF01230023DBB2002B01D001236C
:10106800DBE0FB68724AA2FB03239B0CBB607B6836
:101078001B685B6823F03F017B681B68BA680A43FA
:101088005A607B681B681B6A23F03F017B685B68BA
:10109800644A934202D8BB68013309E0BB684FF445
:1010A800967202FB03F3634AA2FB03239B090133F5
:1010B8007A6812680B4313627B681B68DB6923F448
:1010C8004F4222F0FF027B685B6856498B420DD87D
:1010D800FB68591E7B685B685B00B1FBF3F3013367
:1010E800C3F30B03042B38BF04234FE07B689B68D2
:1010F800002B11D1FB68581E7B6859680B465B00B2
:101108000B44B0FBF3F30133C3F30B03002B0CBF09
:1011180001230023DBB212E0FB68581E7B68596884
:101128000B469B000B4499000B44B0FBF3F30133CF
:10113800C3F30B03002B0CBF01230023DBB2002BEE
:1011480001D0012322E07B689B68002B0ED1FB684D
:10115800581E7B6859680B465B000B44B0FBF3F3E1
:101168000133C3F30B0343F400430FE0FB68581E3D
:101178007B6859680B469B000B4499000B44B0FBF5
:10118800F3F30133C3F30B0343F44043796809686D
:101198001343CB617B681B681B6823F0C0017B6825
:1011A800DA697B681B6A1A437B681B680A431A6002
:1011B8007B681B689B6823F4034323F0FF037A686A
:1011C80011697A68D26811437A6812680B43936090
:1011D8007B681B68DB6823F0FF017B685A697B68C2
:1011E8009B691A437B681B680A43DA607B681B6843
:1011F8001A687B681B6842F001021A607B6800224B
:101208001A647B68202283F83D207B6800221A63D9
:101218007B68002283F83E20002318461037BD461D
:1012280080BD00BFA08601007F841E00FF083D002E
:1012380083DE1B43D34D621080B588B002AFF860DF
:101248007A601A460B467B8113463B81FFF712FCF6
:101258007861FB6893F83D30DBB2202B40F0E080EA
:101268007B690093192301227049F86800F0F2FAAB
:101278000346002B01D00223D3E0FB6893F83C30EF
:10128800012B01D10223CCE0FB68012283F83C202A
:10129800FB681B681B6803F00103012B07D0FB6880
:1012A8001B681A68FB681B6842F001021A60FB6839
:1012B8001B681A68FB681B6822F400621A60FB68E6
:1012C800212283F83D20FB68102283F83E20FB682A
:1012D80000221A64FB687A685A62FB683A895A8560
:1012E800FB685B8D9AB2FB681A85FB68504ADA6224
:1012F80079897B693A6AF86800F096F90346002B09
:1013080001D001238DE000233B61FB681B685B690A
:101318003B61FB681B689B693B613B6966E07A69D6
:10132800396AF86800F06CFB0346002B0DD0FB68A7
:101338001B6C042B07D1FB681B681A68FB681B68C9
:1013480042F400721A6001236BE0FB685B6A1A784A
:10135800FB681B681A61FB685B6A5A1CFB685A6267
:10136800FB685B8D9BB2013B9AB2FB685A85FB68B0
:101378001B8D013B9AB2FB681A85FB681B685B6989
:1013880003F00403042B1BD1FB681B8D002B17D023
:10139800FB685B6A1A78FB681B681A61FB685B6A02
:1013A8005A1CFB685A62FB685B8D9BB2013B9AB280
:1013B800FB685A85FB681B8D013B9AB2FB681A854E
:1013C8007A69396AF86800F05CFB0346002B0DD097
:1013D800FB681B6C042B07D1FB681B681A68FB6849
:1013E8001B6842F400721A6001231AE0FB681B8D27
:1013F800002B94D1FB681B681A68FB681B6842F4D1
:1014080000721A60FB68202283F83D20FB680022E6
:1014180083F83E20FB68002283F83C20002300E08C
:10142800022318461837BD4680BD00BF02001000D1
:101438000000FFFF80B588B002AFF860084611468B
:101448001A4603467B810B463B811346FB80FFF718
:1014580011FB7861FB6893F83D30DBB2202B40F03C
:10146800D9807B690093192301226D49F86800F03F
:10147800F1F90346002B01D00223CCE0FB6893F876
:101488003C30012B01D10223C5E0FB68012283F81F
:101498003C20FB681B681B6803F00103012B07D085
:1014A800FB681B681A68FB681B6842F001021A6037
:1014B800FB681B681A68FB681B6822F400621A60E4
:1014C800FB68212283F83D20FB68402283F83E20F8
:1014D800FB6800221A64FB683A6A5A62FB68BA8C95
:1014E8005A85FB685B8D9AB2FB681A85FB684D4A82
:1014F800DA62F8883A8979897B690193BB6A009333
:101508000346F86800F012F90346002B52D0012375
:1015180081E07A69B96AF86800F072FA0346002B2C
:101528000DD0FB681B6C042B07D1FB681B681A687D
:10153800FB681B6842F400721A6001236BE0FB68C9
:101548005B6A1A78FB681B681A61FB685B6A5A1C3D
:10155800FB685A62FB681B8D013B9AB2FB681A85CF
:10156800FB685B8D9BB2013B9AB2FB685A85FB68AE
:101578001B685B6903F00403042B1BD1FB681B8DFC
:10158800002B17D0FB685B6A1A78FB681B681A6126
:10159800FB685B6A5A1CFB685A62FB681B8D013B3F
:1015A8009AB2FB681A85FB685B8D9BB2013B9AB2C5
:1015B800FB685A85FB681B8D002BAAD17A69B96A2A
:1015C800F86800F05EFA0346002B0DD0FB681B6C30
:1015D800042B07D1FB681B681A68FB681B6842F478
:1015E80000721A60012316E0FB681B681A68FB6822
:1015F8001B6842F400721A60FB68202283F83D20C1
:10160800FB68002283F83E20FB68002283F83C2018
:10161800002300E0022318461837BD4680BD00BFEE
:10162800020010000000FFFF80B588B002AFF8602C
:101638007A603B600B467B81FB68DB6A7B617B6978
:10164800082B06D07B69012B03D07B6913F5803FFB
:1016580008D1FB681B681A68FB681B6842F4807233
:101668001A600BE0FB681B6B122B07D1FB681B6829
:101678001A68FB681B6842F480721A603B68009322
:101688007B6800224FF00111F86800F0E3F8034688
:10169800002B0CD0FB681B681B6803F48073002BBD
:1016A80003D0FB684FF400721A64032335E0FB682B
:1016B8001B69B3F5804F08D17B89DBB21A46FB68FA
:1016C8001B6802F0FE021A611BE07B89DB11DBB2AA
:1016D80003F00603DBB263F00F03DAB2FB681B68A2
:1016E8001A613B687A680F49F86800F00AF90346FE
:1016F800002B01D0012310E07B89DAB2FB681B685C
:101708001A613B687A680849F86800F0FAF80346F5
:10171800002B01D0012300E0002318461837BD46EE
:1017280080BD00BF080001000200010080B588B03C
:1017380002AFF860084611461A4603467B810B46FD
:101748003B811346FB80FB681B681A68FB681B68B3
:1017580042F480721A607B6A00933B6A00224FF061
:101768000111F86800F076F80346002B0CD0FB68EE
:101778001B681B6803F48073002B03D0FB684FF4CD
:1017880000721A6403235FE07B89DBB21A46FB68A8
:101798001B6802F0FE021A617B6A3A6A2C49F868F3
:1017A80000F0AFF80346002B01D001234CE00023E2
:1017B8007B61FB681B685B697B61FB681B689B69D5
:1017C8007B617B697A6A396AF86800F019F903461F
:1017D800002B0DD0FB681B6C042B07D1FB681B6822
:1017E8001A68FB681B6842F400721A6001232BE038
:1017F800FB88012B05D13B89DAB2FB681B681A61AB
:1018080021E03B891B0A9BB2DAB2FB681B681A61AC
:101818007A6A396AF86800F0F3F80346002B0DD0AD
:10182800FB681B6C042B07D1FB681B681A68FB68F4
:101838001B6842F400721A60012305E03B89DAB2A2
:10184800FB681B681A61002318461837BD4680BD1F
:101858000200010080B584B000AFF860B9603B6059
:101868001346FB7125E03B68B3F1FF3F21D0FFF73A
:1018780001F90246BB69D31A3A689A4202D33B6817
:10188800002B16D1FB6800221A63FB68202283F81C
:101898003D20FB68002283F83E20FB681B6C43F068
:1018A8002002FB681A64FB68002283F83C200123AD
:1018B80023E0BB681B0CDBB2012B0DD1FB681B6856
:1018C8005B69DA43BB6813409BB2002B0CBF012352
:1018D8000023DBB21A460CE0FB681B689B69DA43FD
:1018E800BB6813409BB2002B0CBF01230023DBB263
:1018F8001A46FB799A42B6D0002318461037BD46DF
:1019080080BD80B584B000AFF860B9607A603B6094
:1019180051E0FB681B685B6903F48063B3F5806F73
:1019280023D1FB681B681A68FB681B6842F40072C5
:101938001A60FB681B686FF480625A61FB680022BA
:101948001A63FB68202283F83D20FB68002283F895
:101958003E20FB681B6C43F00402FB681A64FB68BA
:10196800002283F83C20012346E07B68B3F1FF3F67
:1019780021D0FFF77FF802463B68D31A7A689A426B
:1019880002D37B68002B16D1FB6800221A63FB6820
:10199800202283F83D20FB68002283F83E20FB6864
:1019A8001B6C43F02002FB681A64FB68002283F872
:1019B8003C20012320E0BB681B0CDBB2012B0CD1BF
:1019C800FB681B685B69DA43BB6813409BB2002B5A
:1019D80014BF01230023DBB20BE0FB681B689B6983
:1019E800DA43BB6813409BB2002B14BF01230023CA
:1019F800DBB2002B8DD1002318461037BD4680BDC1
:101A080080B584B000AFF860B9607A602DE0F868FE
:101A180000F078F80346002B01D001232DE0BB68C5
:101A2800B3F1FF3F21D0FFF725F802467B68D31AB0
:101A3800BA689A4202D3BB68002B16D1FB68002211
:101A48001A63FB68202283F83D20FB68002283F894
:101A58003E20FB681B6C43F02002FB681A64FB689D
:101A6800002283F83C20012307E0FB681B685B69C0
:101A780003F08003802BCAD1002318461037BD46D7
:101A880080BD80B584B000AFF860B9607A602DE0A1
:101A9800F86800F037F80346002B01D001232DE049
:101AA800BB68B3F1FF3F21D0FEF7E4FF02467B6835
:101AB800D31ABA689A4202D3BB68002B16D1FB68C6
:101AC80000221A63FB68202283F83D20FB6800226D
:101AD80083F83E20FB681B6C43F02002FB681A6405
:101AE800FB68002283F83C20012307E0FB681B68A1
:101AF8005B6903F00403042BCAD10023184610378E
:101B0800BD4680BD80B483B000AF78607B681B6839
:101B18005B6903F48063B3F5806F1BD17B681B6836
:101B28006FF480625A617B6800221A637B68202206
:101B380083F83D207B68002283F83E207B681B6C7D
:101B480043F004027B681A647B68002283F83C2017
:101B5800012300E0002318460C37BD4680BC7047BF
:101B680080B586B000AF78607B68002B01D1012377
:101B78005BE27B681B6803F00103002B75D0A34B65
:101B88009B6803F00C03042B0CD0A04B9B6803F05C
:101B98000C03082B12D19D4B5B6803F48003B3F54B
:101BA800800F0BD1994B1B6803F40033002B5BD0DB
:101BB8007B685B68002B57D1012336E27B685B6842
:101BC800B3F5803F06D1914B1B68904A43F48033AC
:101BD80013601DE07B685B68B3F5A02F0CD18B4BBD
:101BE8001B688A4A43F480231360884B1B68874A22
:101BF80043F4803313600BE0844B1B68834A23F45F
:101C080080331360814B1B68804A23F48023136060
:101C18007B685B68002B13D0FEF72CFF386108E067
:101C2800FEF728FF02463B69D31A642B01D9032328
:101C3800FBE1764B1B6803F40033002BF0D014E073
:101C4800FEF718FF386108E0FEF714FF02463B690B
:101C5800D31A642B01D90323E7E16C4B1B6803F407
:101C68000033002BF0D100E000BF7B681B6803F055
:101C78000203002B63D0654B9B6803F00C03002B19
:101C88000BD0624B9B6803F00C03082B1CD15F4BF5
:101C98005B6803F48003002B16D15C4B1B6803F0D0
:101CA8000203002B05D07B68DB68012B01D00123E0
:101CB800BBE1564B1B6823F0F8027B681B69DB000D
:101CC800524913430B603AE07B68DB68002B20D055
:101CD8004F4B01221A60FEF7CDFE386108E0FEF78F
:101CE800C9FE02463B69D31A022B01D903239CE1A2
:101CF800464B1B6803F00203002BF0D0434B1B68D4
:101D080023F0F8027B681B69DB00404913430B6032
:101D180015E03F4B00221A60FEF7ACFE386108E080
:101D2800FEF7A8FE02463B69D31A022B01D903230A
:101D38007BE1364B1B6803F00203002BF0D17B6874
:101D48001B6803F00803002B30D07B685B69002B0D
:101D580016D0304B01221A60FEF78CFE386108E07D
:101D6800FEF788FE02463B69D31A022B01D90323EA
:101D78005BE1264B5B6F03F00203002BF0D015E00C
:101D8800244B00221A60FEF775FE386108E0FEF762
:101D980071FE02463B69D31A022B01D9032344E1A1
:101DA8001A4B5B6F03F00203002BF0D17B681B68B2
:101DB80003F00403002B00F0A0800023FB75134BF5
:101DC8001B6C03F08053002B0FD10023BB600F4B1B
:101DD8001B6C0E4A43F0805313640C4B1B6C03F0CE
:101DE8008053BB60BB680123FB750B4B1B6803F476
:101DF8008073002B21D1084B1B68074A43F480737A
:101E08001360FEF737FE386111E000BF003802406A
:101E180000004742800E474200700040FEF72AFE4D
:101E280002463B69D31A022B01D90323FDE0814BFB
:101E38001B6803F48073002BF0D07B689B68012B30
:101E480006D17D4B1B6F7C4A43F0010313671CE0EE
:101E58007B689B68052B0CD1774B1B6F764A43F048
:101E680004031367744B1B6F734A43F00103136732
:101E78000BE0714B1B6F704A23F0010313676E4B25
:101E88001B6F6D4A23F0040313677B689B68002B64
:101E980015D0FEF7EFFD38610AE0FEF7EBFD0246CC
:101EA8003B69D31A41F28832934201D90323BCE03B
:101EB800614B1B6F03F00203002BEED014E0FEF71A
:101EC800D9FD38610AE0FEF7D5FD02463B69D31A11
:101ED80041F28832934201D90323A6E0564B1B6F87
:101EE80003F00203002BEED1FB7D012B05D1524BF1
:101EF8001B6C514A23F0805313647B689B69002B49
:101F080000F092804C4B9B6803F00C03082B5CD0CC
:101F18007B689B69022B41D1484B00221A60FEF76F
:101F2800A9FD386108E0FEF7A5FD02463B69D31A12
:101F3800022B01D9032378E03F4B1B6803F00073A1
:101F4800002BF0D17B68DA697B681B6A1A437B68CF
:101F58005B6A9B011A437B689B6A5B08013B1B0415
:101F68001A437B68DB6A1B06334913434B60334BC8
:101F780001221A60FEF77EFD386108E0FEF77AFD5F
:101F880002463B69D31A022B01D903234DE02A4BA1
:101F98001B6803F00073002BF0D045E0274B0022AC
:101FA8001A60FEF767FD386108E0FEF763FD024638
:101FB8003B69D31A022B01D9032336E01E4B1B6859
:101FC80003F00073002BF0D12EE07B689B69012B96
:101FD80001D1012329E0184B9B68FB60FB6803F4DF
:101FE80080027B68DB699A421CD1FB6803F03F02E0
:101FF8007B681B6A9A4215D1FA6847F6C07313408A
:102008007A68526A93420DD1FB6803F440327B68C8
:102018009B6A9A4206D1FB6803F070627B68DB6AB0
:102028009A4201D0012300E0002318461837BD4624
:1020380080BD00BF00700040003802406000474289
:1020480080B584B000AF786039607B68002B01D11F
:102058000123CCE0684B1B6803F00F033A689A42EF
:102068000CD9654B3A68D2B21A70634B1B6803F0FF
:102078000F033A689A4201D00123B8E07B681B68D5
:1020880003F00203002B20D07B681B6803F00403D5
:10209800002B05D0594B9B68584A43F4E053936092
:1020A8007B681B6803F00803002B05D0534B9B6823
:1020B800524A43F460439360504B9B6823F0F0020C
:1020C8007B689B684D4913438B607B681B6803F0F2
:1020D8000103002B44D07B685B68012B07D1474B79
:1020E8001B6803F40033002B19D101237FE07B68C0
:1020F8005B68022B03D07B685B68032B07D13F4BDF
:102108001B6803F00073002B09D101236FE03B4BE0
:102118001B6803F00203002B01D1012367E0374B52
:102128009B6823F003027B685B68344913438B6028
:10213800FEF7A0FCF8600AE0FEF79CFC0246FB688C
:10214800D31A41F28832934201D903234FE02B4B33
:102158009B6803F00C027B685B689B009A42EBD19A
:10216800254B1B6803F00F033A689A420CD2224BA6
:102178003A68D2B21A70204B1B6803F00F033A6812
:102188009A4201D0012332E07B681B6803F0040304
:10219800002B08D0194B9B6823F4E0527B68DB685E
:1021A800164913438B607B681B6803F00803002BF8
:1021B80009D0124B9B6823F460427B681B69DB00E3
:1021C8000E4913438B6000F021F801460B4B9B68C6
:1021D8001B0903F00F030A4AD35C21FA03F3094AE7
:1021E8001360094B1B681846FEF702FC00231846CB
:1021F8001037BD4680BD00BF003C02400038024099
:10220800D43C0008102E002000000020F0B585B056
:1022180000AF00237B600023FB6000233B600023AA
:10222800BB60634B9B6803F00C03042B07D0082B9F
:1022380008D0002B40F0B4805E4BBB60B3E05E4B2F
:10224800BB60B0E05A4B5B6803F03F037B60584BC0
:102258005B6803F48003002B4AD0554B5B689B09ED
:102268004FF0000440F2FF114FF0000203EA0105AD
:1022780004EA0206294632464FF000034FF00004F4
:10228800540144EAD1644B0119462246491B62EBCA
:1022980006024FF000034FF00004940144EA9164F1
:1022A8008B015B1A64EB02044FF000014FF000024F
:1022B800E20042EA5372D9000B4614465B1944EB1C
:1022C80006044FF000014FF00002620242EAD352C6
:1022D80059020B461446184621467B684FF0000405
:1022E8001A462346FEF774F903460C46FB6049E09C
:1022F8002F4B5B689B094FF0000440F2FF114FF031
:10230800000203EA010504EA0206294632464FF0B4
:1023180000034FF00004540144EAD1644B0119460C
:102328002246491B62EB06024FF000034FF00004FF
:10233800940144EA91648B015B1A64EB02044FF048
:1023480000014FF00002E20042EA5372D9000B4646
:1023580014465B1944EB06044FF000014FF00002ED
:10236800A20242EA935299020B46144618462146A5
:102378007B684FF000041A462346FEF729F9034606
:102388000C46FB600A4B5B681B0C03F0030301332C
:102398005B003B60FA683B68B2FBF3F3BB6002E0AA
:1023A800044BBB6000BFBB6818461437BD46F0BD80
:1023B800003802400024F40000127A0080B400AF14
:1023C800024B1B681846BD4680BC7047102E002083
:1023D80080B500AFFFF7F2FF0146054B9B689B0AEB
:1023E80003F00703034AD35C21FA03F3184680BDC0
:1023F80000380240E43C000880B58AB000AF07F11D
:10240800140300221A605A609A60DA601A61002385
:102418003B61594B1B6B584A43F010031363564BEF
:102428001B6B03F010033B613B690023FB60524BBD
:102438001B6B514A43F0040313634F4B1B6B03F0B0
:102448000403FB60FB680023BB604B4B1B6B4A4AD1
:1024580043F080031363484B1B6B03F08003BB609E
:10246800BB6800237B60444B1B6B434A43F001036A
:102478001363414B1B6B03F001037B607B680023F4
:102488003B603D4B1B6B3C4A43F0080313633A4BDC
:102498001B6B03F008033B603B68002208213748A8
:1024A800FEF77AFD012201213548FEF775FD00226D
:1024B8004FF210013348FEF76FFD04237B610023C0
:1024C800BB610023FB6107F1140319462B48FEF793
:1024D800E1FB08237B610123BB610023FB6100232F
:1024E8003B6207F1140319462448FEF7D3FB322355
:1024F8007B61254BBB610023FB6107F1140319467F
:102508001E48FEF7C7FB01237B610123BB61002343
:10251800FB6100233B6207F1140319461848FEF7D4
:10252800B9FB01237B61184BBB610023FB6107F1F9
:10253800140319461548FEF7ADFB4FF210037B61F3
:102548000123BB610023FB6100233B6207F11403F5
:1025580019460C48FEF79EFB20237B610023BB61D4
:102568000023FB6107F1140319460648FEF792FBA6
:1025780000BF2837BD4680BD003802400010024029
:1025880000080240000C0240000012100000024047
:1025980080B500AF124B134A1A60114B124A5A60A9
:1025A8000F4B00229A600E4B0022DA600C4B4FF45E
:1025B80080421A610A4B00225A61094B00229A6133
:1025C800074B0022DA61064B00221A620448FEF724
:1025D800FBFC0346002B01D000F02AFA00BF80BDA7
:1025E800342E0020005C0040A086010080B58AB02F
:1025F80000AF786007F1140300221A605A609A60ED
:10260800DA601A617B681B68294A93424BD1002320
:102618003B61284B1B6B274A43F004031363254B8C
:102628001B6B03F004033B613B690023FB60214BF8
:102638001B6B204A43F0010313631E4B1B6B03F013
:102648000103FB60FB684FF400737B611223BB61DD
:102658000123FB6103233B6204237B6207F114031C
:1026680019461548FEF716FB4FF480737B61122359
:10267800BB610123FB6103233B6204237B6207F1F7
:10268800140319460D48FEF705FB0023BB60094BF0
:102698001B6C084A43F400031364064B1B6C03F4D9
:1026A8000003BB60BB6800BF2837BD4680BD00BFC4
:1026B800005C004000380240000802400000024070
:1026C80090B58BB000AFFEF771F900F049F9FFF74C
:1026D80093FEFFF75DFF00F095FD0021002001F05B
:1026E8000FFA032000F0E8FD0121914801F058F8A5
:1026F8003721692001F004FA012000F05DFE232152
:102708004B2001F0FDF9012000F056FE1B210F209F
:1027180001F0F6F901223C210F2001F0ADF811215A
:10272800192001F0EDF9012211215A2001F0A4F835
:102738002F21192001F0E4F901223C21502001F059
:102748009BF800F005FE41F27070FEF79DF900F06D
:10275800B5FE0021002001F0D3F90121754801F0F0
:102768001FF81421142001F0CBF901221E21322078
:1027780001F00EF928213C2001F0C2F901223C2188
:10278800642001F06BF92321232001F0B9F901221B
:102798003721372001F0FCF80A21462001F0B0F972
:1027A80001221E21782001F059F90C21482001F05E
:1027B800A7F900221C21762001F050F900F0C8FD8D
:1027C80041F27070FEF760F900F078FE00210020F9
:1027D80001F096F90121584800F0E2FF0C21002091
:1027E80001F08EF9002000F067FD0121534800F048
:1027F800D7FF1821002001F083F9012000F05CFDCB
:1028080001214F4800F0CCFF2421002001F078F985
:10281800022000F051FD01214A4800F0C1FF30219B
:10282800002001F06DF9032000F046FD0121464823
:1028380000F0B6FF2821642001F062F90121434825
:1028480000F0AEFF00F084FD41F27070FEF71CF955
:1028580000F034FE0021002001F052F901213C482B
:1028680000F09EFF0B21002001F04AF901220B2104
:102878003C2001F001F8374B07F110040FCB84E836
:102888000F0020213C2001F03BF907F110031A4604
:102898000821082000F09EFF2021282001F030F9AF
:1028A8002D4B3C460FCB84E80F003B461A460821C7
:1028B800082000F08FFF00F04BFD41F27070FEF72A
:1028C800E3F800F0FBFD00237B6213E07B6A9BB218
:1028D8001E21184601F014F90021204800F060FF7D
:1028E80000F036FDFA20FEF7CFF800F0E7FD7B6A2E
:1028F80002337B627B6A3D2BE8DD3E233B6213E0BB
:102908003B6A9BB21E21184601F0FAF800211348D1
:1029180000F046FF00F01CFDFA20FEF7B5F800F0C5
:10292800CDFD3B6A023B3B623B6A002BE8DCFEE7DD
:102938005C3C0008703C0008783C0008803C0008BB
:10294800883C0008903C0008983C0008A03C00081F
:10295800A43C0008B43C0008C43C0008AC3C000897
:1029680080B594B000AF07F120033022002118464B
:10297800FDF7D2FF07F10C0300221A605A609A6033
:10298800DA601A610023BB60274B1B6C264A43F0B0
:1029980080531364244B1B6C03F08053BB60BB68EB
:1029A80000237B60214B1B68204A43F4404313609B
:1029B8001E4B1B6803F440437B607B6801233B622A
:1029C8004FF480337B620223BB634FF48003FB63C5
:1029D80004233B64C0237B640423BB640823FB6497
:1029E80007F120031846FFF7BBF80346002B01D078
:1029F80000F01EF80F23FB6002233B6100237B617C
:102A08004FF4A053BB610023FB6107F10C030321C2
:102A18001846FFF715FB0346002B01D000F008F815
:102A280000BF5037BD4680BD0038024000700040EE
:102A380080B400AF00BFBD4680BC704780B584B08D
:102A480002AF0346FB80094B00221A72FB88DAB2F8
:102A5800064B5A72642300930223054A78210548DD
:102A6800FEF7EAFB00BF0837BD4680BD882E002070
:102A7800902E0020342E002080B483B000AF03468F
:102A88000A46FB801346BB80BA88FB88934228BF5E
:102A980013469BB218460C37BD4680BC704780B4BD
:102AA80083B000AF03460A46FB801346BB80BA8852
:102AB800FB88934238BF13469BB218460C37BD4675
:102AC80080BC704780B584B000AF03460A46FB80DF
:102AD80013467B71164B9B88023B7B81144BDB882A
:102AE8003B810023FB6010E0FB689AB27B891344AA
:102AF8009BB23A891146184601F002F87B791846CC
:102B080000F05AFCFB680133FB60FB88FA689A42C4
:102B1800EADB7A89FB8813449BB202339BB23A8979
:102B28001146184600F0ECFF00BF1037BD4680BDC7
:102B3800882E002080B584B000AF03460A46FB808B
:102B480013467B71154B9B88023B7B81134BDB88BB
:102B58003B810023FB6010E0FB689AB23B89134479
:102B68009AB27B891146184600F0CAFF7B7918464D
:102B780000F022FCFB680133FB60FB88FA689A428C
:102B8800EADB7B8902339BB23A891146184600F08A
:102B9800B7FF00BF1037BD4680BD00BF882E00209C
:102BA800F0B58BB000AF0446084611461A462346D6
:102BB800FB800346BB800B467B8013463B8000238B
:102BC800FB840023BB8400237B8400233B840023F5
:102BD800FB61FA887B889A4203D2BA883B889A427A
:102BE80007D37A88FB889A4226D23A88BB889A42C9
:102BF80022D27A88FB8811461846FFF73DFF034624
:102C0800FB847A88FB8811461846FFF748FF03467D
:102C18007B843A88BB8811461846FFF72DFF034688
:102C2800BB843A88BB8811461846FFF738FF03462D
:102C38003B840023FB6121E07A88FB881146184613
:102C4800FFF71AFF0346FB847A88FB88114618466B
:102C5800FFF725FF03467B843A88BB881146184650
:102C6800FFF71DFF0346BB843A88BB881146184608
:102C7800FFF702FF03463B840123FB61BA8CFB8C00
:102C88001146184600F03CFF97F84030184600F00F
:102C980093FB3A8C7B8C1146184600F031FF97F86D
:102CA8004030184600F088FB7A8CFB8CD31A013B25
:102CB8003B613A8CBB8CD31A013BFB60FB68002B51
:102CC80040F0FA80FB8C01339BB2BA8C114618464F
:102CD80000F016FF3B69DA0F13445B101846FDF746
:102CE800EDFB03460C4618462146FDF751FC03460A
:102CF8009BB297F8402011461846FFF7E3FEFB69A0
:102D0800002B6CD1FB8C01331846FDF7D7FB04462A
:102D18000D463B69DA0F13445B101846FDF7CEFBEE
:102D280002460B4620462946FDF77CFA03460C4628
:102D380018462146FDF72CFC03469AB2BB8C01339A
:102D48009BB21946104600F0DBFEFB8C0133184697
:102D5800FDF7B4FB04460D463B69DA0F13445B10DC
:102D68001846FDF7ABFB02460B4620462946FDF701
:102D780059FA03460C4625461C463B69DA0F1344AC
:102D88005B101846FDF79AFB02460B46104619469B
:102D9800FDF7FEFB03469BB21846FDF78FFB024684
:102DA8000B4620462946FDF73DFA03460C461846D1
:102DB80021464FF00002C94BFDF734FA03460C4692
:102DC80018462146FDF7E4FB034698B2BB8C013355
:102DD8009BB297F84020194600F04EFD0FE2FB8C9D
:102DE80001331846FDF76AFB04460D463B69DA0FC6
:102DF80013445B101846FDF761FB02460B4620465C
:102E08002946FDF70FFA03460C4618462146FDF7FA
:102E1800BFFB03469AB2BB8C013B9BB219461046D6
:102E280000F06EFEFB8C01331846FDF747FB0446A5
:102E38000D463B69DA0F13445B101846FDF73EFB5D
:102E480002460B4620462946FDF7ECF903460C4698
:102E580025461C463B69DA0F13445B101846FDF7FC
:102E68002DFB02460B4610461946FDF791FB03461B
:102E78009BB21846FDF722FB02460B462046294620
:102E8800FDF7D0F903460C46184621464FF00002DC
:102E9800924BFDF7C7F903460C4618462146FDF745
:102EA80077FB034698B2BB8C013B9BB297F8402056
:102EB800194600F0E1FCA2E13B69002B40F0FC80E0
:102EC800BB8C01339AB2FB8C1146184600F018FEF1
:102ED800FB68DA0F13445B101846FDF7EFFA034658
:102EE8000C4618462146FDF753FB03469BB297F85C
:102EF800402011461846FFF71DFEFB69002B6DD1D7
:102F0800FB8C01339CB2BB8C01331846FDF7D6FA13
:102F180005460E46FB68DA0F13445B101846FDF7AA
:102F2800CDFA02460B4628463146FDF77BF90246A4
:102F38000B4610461946FDF72BFB03469BB2194674
:102F4800204600F0DDFDFB8C01339CB2BB8C0133C5
:102F58001846FDF7B3FA05460E46FB68DA0F134428
:102F68005B101846FDF7AAFA02460B46284631467A
:102F7800FDF758F902460B4615461E46FB68DA0F60
:102F880013445B101846FDF799FA02460B461046A3
:102F98001946FDF7FDFA03469BB21846FDF78EFA6F
:102FA80002460B4628463146FDF73CF902460B46D9
:102FB800104619464FF00002484BFDF733F9024618
:102FC8000B4610461946FDF7E3FA03469BB297F8FD
:102FD80040201946204600F04FFC10E1FB8C013BD5
:102FE8009CB2BB8C013B1846FDF768FA05460E46B5
:102FF800FB68DA0F13445B101846FDF75FFA0246C8
:103008000B4628463146FDF70BF902460B4610469B
:103018001946FDF7BDFA03469BB21946204600F053
:103028006FFDFB8C013B9CB2BB8C013B1846FDF746
:1030380045FA05460E46FB68DA0F13445B1018463E
:10304800FDF73CFA02460B4628463146FDF7E8F8FC
:1030580002460B4615461E46FB68DA0F13445B1002
:103068001846FDF72BFA02460B4610461946FDF79F
:103078008FFA03469BB21846FDF720FA02460B4624
:1030880028463146FDF7CEF802460B46104619464B
:103098004FF00002114BFDF7C3F802460B461046ED
:1030A8001946FDF775FA03469BB297F84020194672
:1030B800204600F0E1FBA2E00023BB60FB8C01335B
:1030C800BB61BB8C01337B613A69FB689A4248DD7E
:1030D8003A69FB6892FBF3F3BB6023E00000F03F22
:1030E800BB699BB27A6992B21146184600F008FD96
:1030F800BB699AB2BB689BB213449BB27A6991B21E
:1031080097F84020184600F0B7FBBA69BB6813442B
:10311800BB61FB69012B02D17B69013B01E07B6943
:1031280001337B617B8CBA699A4203D03B8C7A6904
:103138009A42D5D17B8CBA699A425DD0BB699AB262
:103148003B8C013B9BB21946104600F0D9FC3B8CE6
:10315800013B99B297F840207B8C184600F08CFB15
:103168004AE0FB69012B05D1FA683B6992FBF3F34E
:103178005B4203E0FA683B6992FBF3F3BB601BE038
:10318800BB699BB27A6992B21146184600F0B8FC46
:10319800BB6998B27B699AB2BB689BB213449BB275
:1031A80097F84020194600F067FB7A69BB6813441A
:1031B8007B61BB690133BB617B8CBA699A4203D0DE
:1031C8003B8C7A699A42DBD13B8C7A699A4215D05A
:1031D8007B8C013B9BB27A6992B21146184600F08B
:1031E8008FFC7B8C013B9BB297F84020398C1846AA
:1031F80000F042FB00BF01E000BF00E000BF2C3739
:10320800BD46F0BD80B500AF6420FDF73DFCAE20A3
:10321800FFF714FCD520FFF711FC8020FFF70EFC08
:10322800A820FFF70BFC3F20FFF708FCD320FFF78F
:1032380005FC0020FFF702FC4020FFF7FFFB8D2074
:10324800FFF7FCFB1420FFF7F9FB2020FFF7F6FB44
:103258000020FFF7F3FBA120FFF7F0FBC820FFF7E2
:10326800EDFBDA20FFF7EAFB1220FFF7E7FB8120EE
:10327800FFF7E4FBCF20FFF7E1FBD920FFF7DEFBE8
:10328800F120FFF7DBFBDB20FFF7D8FB4020FFF73F
:10329800D5FBA420FFF7D2FBA620FFF7CFFBAF207A
:1032A800FFF7CCFB00F00AF9024B01221A6000BFBD
:1032B80080BD00BF882E002080B483B000AF0346D5
:1032C800FB71FB79012B09D11A4B1B4A1A601B4B66
:1032D80005221A801A4B07221A8025E0FB79002B59
:1032E80009D1144B174A1A60144B04221A80144B44
:1032F80006221A8018E0FB79022B09D10D4B124ADD
:103308001A600E4B06221A800D4B08221A800BE019
:10331800FB79032B08D1074B0C4A1A60074B08228C
:103328001A80074B08221A8000BF0C37BD4680BCA4
:10333800704700BF082E0020080800200C2E00202F
:103348000E2E00200800002008120020081E002071
:1033580080B586B004AF0023FB7122E0FB799BB2F5
:10336800B0339BB21846FFF769FB0020FFF766FBF6
:103378001020FFF763FBFA7913465B0113449B00A7
:103388001A460B4B13446422029284220192009342
:103398000123402278210748FEF74CF8FB790133D6
:1033A800FB71FB79072BD9D900BF0837BD4680BD13
:1033B800942E0020342E002090B482B000AF034633
:1033C800FB71FB79012B26D1294B9B881946284B89
:1033D800DB88DB0898B2024613465B0113449B0066
:1033E8000B44244AD35C5AB2214BDB8803F0070311
:1033F800012101FA03F35BB2134359B21C4B9B88BA
:103408001C46024613465B0113449B002344C9B281
:10341800184AD15427E0164B9B881946144BDB8871
:10342800DB0898B2024613465B0113449B000B4429
:10343800104AD35C5AB20E4BDB8803F00703012114
:1034480001FA03F35BB2DB435BB2134059B2084B9A
:103458009B881C46024613465B0113449B00234489
:10346800C9B2044AD15400BF0837BD4690BC704762
:10347800882E0020942E002080B485B000AF03462B
:10348800FB710023FB600DE0FB79002B01D10021CB
:1034980000E0FF21084AFB6813440A461A70FB68DB
:1034A8000133FB60FB68B3F5846FEDD300BF1437BD
:1034B800BD4680BC704700BF942E002080B500AF89
:1034C8000020FFF7D9FF00BF80BD000090B587B08E
:1034D80000AF03460A46FB711346BB71AC4B9B8891
:1034E800FB82AB4BDB887B81BB79012B40F0A98049
:1034F800FA8A7B89DB089BB219460B465B010B44B1
:103508009B001344A34A0021D154FA8A7B890833CB
:10351800002B00DA0733DB1019460B465B010B441E
:103528009B0013449B4A0021D154FB8A0133FB8240
:1035380000233B6161E0FA8A7B89DB089CB2214663
:103548000B465B010B449B001344924AD35C5AB26E
:10355800914B1968FB799148008800FB03F03B699F
:1035680003445B000B441B8819467B8903F007035F
:1035780001FA03F35BB2134358B2FA8A21460B46A9
:103588005B010B449B001344C1B2824AD154F98AAF
:103598007B890833002B00DA0733DB101A46134601
:1035A8005B0113449B000B447A49CB5C59B27A4BBC
:1035B8001868FB79794C248804FB03F43B6923449D
:1035C8005B0003441B8818467B8903F00703C3F19B
:1035D800080340FA03F35BB20B4358B2F98A134667
:1035E8005B0113449B000B44C1B26A4AD154FB8A65
:1035F8000133FB823B6901333B61684B1B881A46E8
:103608003B69934297DBFA8A7B89DB089BB21946B0
:103618000B465B010B449B0013445E4A0021D154C6
:10362800FA8A7B890833002B00DA0733DB10194646
:103638000B465B010B449B001344564A0021D154AE
:1036480092E0FA8A7B89DB089BB219460B465B013C
:103658000B449B0013444F4AFF21D154FA8A7B89BB
:103668000833002B00DA0733DB1019460B465B01E1
:103678000B449B001344474AFF21D154FB8A013372
:10368800FB820023FB604CE0434B1A68FB794349FB
:10369800098801FB03F1FB680B445B0013441B889A
:1036A8001A467B8903F0070302FA03F3DAB2F98AB0
:1036B8007B89DB089BB2184603465B0103449B00E9
:1036C8000B44D243D1B2334AD154334B1A68FB79F5
:1036D8003249098801FB03F1FB680B445B00134482
:1036E8001B881A467B8903F00703C3F1080342FAD3
:1036F80003F3DAB2F98A7B890833002B00DA07333F
:10370800DB10184603465B0103449B000B44D2437D
:10371800D1B2204AD154FB8A0133FB82FB680133C2
:10372800FB601E4B1B881A46FB689342ACDBFA8A87
:103738007B89DB089BB219460B465B010B449B0057
:103748001344144AFF21D154FA8A7B890833002B89
:1037580000DA0733DB1019460B465B010B449B006C
:1037680013440C4AFF21D154FB8A023BFB820B4BCA
:103778001B88072B02D9FB8A013BFB827A89FB8ACB
:103788001146184600F0BCF900BF1C37BD4690BD75
:10379800882E0020942E0020082E00200C2E0020B9
:1037A80080B582B000AF78600B46FB7009E07B689B
:1037B8001B78FA7811461846FFF788FE7B680133B4
:1037C8007B607B681B78002BF1D100BF0837BD46B2
:1037D80080BD000080B487B000AF03463A60FB802C
:1037E8000B46BB80BB8803F007039BB2002B01D0BC
:1037F800002337E01E4B9B887B811D4BDB883B8178
:103808000023FB8200233B6127E00023FB601DE0CF
:10381800FB685B003A68134418887A89FB681A4485
:1038280039893B690B44002B00DA0733DB10194652
:103838000B465B010B449B001344C1B20D4AD154A3
:10384800FB8A0133FB82FB680133FB60FB88FA6863
:103858009A42DDDB3B6908333B61BB883A699A428F
:10386800D3DB012318461C37BD4680BC704700BF18
:10387800882E0020942E002090B589B002AF034610
:10388800FB800B46BB801346FB70404B9B88023B7A
:10389800FB823E4BDB88BB82FA8AFB8811461846BE
:1038A800FFF7EAF803467B82BA8ABB8811461846B6
:1038B800FFF7E2F803463B82FA8AFB88114618466E
:1038C800FFF7EDF80346FB81BA8ABB881146184614
:1038D800FFF7E5F80346BB81FA8AFB889A4219D1BB
:1038E8003A8A7B8A1146184600F00AF9BA893B8A57
:1038F800D31A9BB201339BB2FA7811461846FFF7E8
:1039080019F9BB8901339AB2FB891146184600F0B0
:10391800F7F836E0BA8ABB889A4219D13A8A7B8A84
:103928001146184600F0ECF8FA897B8AD31A9BB244
:1039380001339BB2FA7811461846FFF7C3F8FB89A2
:1039480001339BB2BA891146184600F0D9F818E03D
:103958003A8A7B8A1146184600F0D2F8BC88FA8861
:10396800B98AF88AFB7800932346FFF719F9FB898F
:1039780001339AB2BB8901339BB21946104600F055
:10398800BFF800BF1C37BD4690BD00BF882E002081
:1039980080B586B000AF0346FB800B46BB8013465C
:1039A800FB702D4B9B88FB822B4BDB88BB82FA8AF2
:1039B800FB8811461846FFF75FF803467B82BA8AF0
:1039C800BB8811461846FFF757F803463B82FA8A28
:1039D800FB8811461846FFF762F80346FB81BA8A4E
:1039E800BB8811461846FFF75AF80346BB813A8A46
:1039F8007B8A1146184600F083F8FA78B9897B8AE1
:103A08001846FFF739FF3A8A7B8A1146184600F0B4
:103A180077F8FA78398AFB891846FFF72DFFBA89B3
:103A2800FB891146184600F06BF8FA78398AFB8949
:103A38001846FFF721FFBA89FB891146184600F09E
:103A48005FF8FA78B9897B8A1846FFF715FF00BF37
:103A58001837BD4680BD00BF882E002080B586B0CF
:103A680000AF0346FB800B46BB801346FB70234B1D
:103A78009B887B82214BDB883B827A8AFB881146B4
:103A88001846FEF7F9FF0346FB813A8ABB881146C0
:103A98001846FEF7F1FF0346BB817A8AFB88114678
:103AA8001846FEF7FCFF03467B813A8ABB8811461D
:103AB8001846FEF7F4FF03463B81FB897B6114E05F
:103AC8007B699BB2BA891146184600F019F83A8901
:103AD800BB89D31A9BB201339BB2FA7811461846B8
:103AE800FFF728F87B6901337B617B8901337A69A9
:103AF8009A42E5DB00BF1837BD4680BD882E0020FE
:103B080080B483B000AF03460A46FB801346BB80EF
:103B1800FB8802339AB2054B9A80044ABB88D3804B
:103B280000BF0C37BD4680BC704700BF882E002000
:103B380080B483B000AF00237B600F4B5B6C0E4AF0
:103B480043F4804353640C4B5B6C03F480437B6009
:103B58007B6800233B60084B1B6C074A43F080538B
:103B68001364054B1B6C03F080533B603B6800BF3C
:103B78000C37BD4680BC70470038024080B400AFA7
:103B880000BFBD4680BC704780B400AFFEE780B47C
:103B980000AFFEE780B400AFFEE780B400AFFEE7F9
:103BA80080B400AF00BFBD4680BC704780B400AF92
:103BB80000BFBD4680BC704780B400AF00BFBD46A3
:103BC80080BC704780B500AFFCF742FF00BF80BDE6
:103BD80080B400AF034B4FF000629A6000BFBD464F
:103BE80080BC704700ED00E0DFF834D0002103E02E
:103BF8000C4B5B58435004310B480C4B42189A420B
:103C0800F6D30B4A02E0002342F8043B094B9A42E0
:103C1800F9D3FFF7DDFFFCF75BFEFEF751FD7047B8
:103C280000000220FC3C000800000020142E0020A8
:103C3800142E0020B4320020FEE70000F8B500BFC3
:103C4800F8BC08BC9E467047F8B500BFF8BC08BC75
:043C58009E467047CD
:103C5C00506978656C7320616E64206C696E657355
:103C6C00000000005368617065730000466F6E744D
:103C7C0073000000466F6E7434783600466F6E74B5
:103C8C0035783700466F6E7436783800466F6E7430
:103C9C00387838003A2900004269746D61707300FD
:103CAC0054686520656E64003C0042008900A100E8
:103CBC00A100890042003C00FF00810089008500C2
:103CCC00B50089008100FF0000000000000000002A
:103CDC0001020304060708090000000001020304A6
:083CEC001CC9FF7F010000006C
:043CF40001020008C1
:043CF800D9010008E6
:103CFC0010000000010000000000000000000000A7
:103D0C0000000E0015000E0000000E001B000E003F
:103D1C0000000E001C000E0000000C001E000C0029
:103D2C00000016001F001600000014001F001400F5
:103D3C000000000000000000000000000000000077
:103D4C000000000000000000000000000000000067
:103D5C00000018001A00060000000A001D000A00EE
:103D6C0000000000000000000000040013000E0022
:103D7C0000000E001B000E0000001F000E000400CF
:103D8C00000004000E001F0000000A001F000A00C3
:103D9C000000170000001700000000003C000200AB
:103DAC00000010000F0000000000100010001000B8
:103DBC0000002A003F002A00000002001F00020041
:103DCC00000008001F000800040004000E0004009E
:103DDC0004000E000400040000000C0008000800A1
:103DEC0000000E0004000E0000000C000E000C0081
:103DFC00000006000E00060000000000000000009D
:103E0C000000000017000000000003000000030089
:103E1C0000001F000A001F00000014003F000A00F1
:103E2C00000009000400120000001A0015001E001A
:103E3C00000003000100000000000E001100000053
:103E4C00000011000E000000000015000E0015000F
:103E5C00000004000E000400000030001000000000
:103E6C00000004000400040000000000100000002A
:103E7C00000018000400030000001E0011000F00D9
:103E8C00000012001F0010000000190015001200A5
:103E9C000000110015000A000000060004001F00BD
:103EAC00000017001500090000000E0015000800A6
:103EBC00000001001D00070000000A0015000A00A8
:103ECC000000020015000E000000000014000000AD
:103EDC000000300014000000000004000A00110073
:103EEC000000140014001400000011000A0004006B
:103EFC00000001001500020000001F001100170057
:103F0C0000001E0005001E0000001F0015000A0026
:103F1C0000000E001100110000001F0011000E0027
:103F2C0000001F001500110000001F00050001001B
:103F3C0000000E0011001D0000001F0004001F00F7
:103F4C00000011001F0011000000080010000F00FD
:103F5C0000001F0004001B0000001F0010001000D8
:103F6C0000001F0006001F0000001F0002001F00C1
:103F7C0000000E0011000E0000001F0005000200E2
:103F8C0000000E0019001E0000001F0005001A00A2
:103F9C000000160015000D00000001001F000100BC
:103FAC0000001F0010001F0000000F0010000F0089
:103FBC0000001F000C001F0000001B0004001B0071
:103FCC00000003001C000300000019001500130082
:103FDC0000001F0011000000000003000400180086
:103FEC00000011001F000000000002000100020090
:103FFC002000200020002000000001000300000031
:10400C000000180014001C0000001F001400080021
:10401C0000000800140014000000080014001F0029
:10402C0000000C001C001400000004001E00050021
:10403C0000002C0024003C0000001F0004001800AD
:10404C00000000001D000000000020003D000000EA
:10405C0000001F0008001400000000001F000000FA
:10406C0000001C000C001C0000001C0004001800C8
:10407C00000008001400080000003C0014000800B8
:10408C000000080014003C0000001C0004000000AC
:10409C00000010001C000400000004001E001400AE
:1040AC0000001C0010001C0000000C0010000C0094
:1040BC0000001C0018001C00000014000800140074
:1040CC0000002C0010000C00000004001C0010006C
:1040DC00000004001F001100000000001F00000081
:1040EC00000011001F00040002000100020001008A
:1040FC0000000C000A000C0000002E001900090042
:10410C0000000D0010001D0000000C001E0015002A
:10411C0000001A0015001E000000190014001D00FC
:10412C000000190016001C000000180015001C00EF
:10413C0000002E003A000A0000000E001D001600C0
:10414C0000000D001C00150000000D001E001400E6
:10415C00000001001C000100000002001900020018
:10416C00000001001A00000000001D000A001D00E4
:10417C0000001C000B001C0000001C001E001500A1
:10418C00000018001C000C0000001E001F00150091
:10419C0000000A0015000A000000090014000900C4
:1041AC00000009001600080000001A0011001A0097
:1041BC0000001D0012001C0000002D0010000D005E
:1041CC0000000D0012000D0000001D0010001D006D
:1041DC0000000E001B000A00000014001E00150059
:1041EC0000000B001E000B0000001E000600180053
:1041FC00000010001F0005000000180016001D0034
:10420C00000000001A00010000001C0016001D0038
:10421C00000018001200190000001D0005001D0010
:10422C0000001D0009001D000000160015001700FD
:10423C00000012001500120000000800150010000C
:10424C0000000E0002000200020002000E0000003E
:10425C0000000B0014001A0000000B000C001A00E8
:10426C00000000001D00000004000A0004000A0009
:10427C000A0004000A0004000000150000002A00D7
:10428C002A0015002A0015003F002A003F001500E7
:10429C00000000003F000000040004003F0000008C
:1042AC000A000A003F00000004003F0000003F002D
:1042BC0004003C0004003C000A000A003E00000020
:1042CC000A003B0000003F0000003F0000003F00E0
:1042DC000A003A0002003E000A000B0008000F0022
:1042EC0004000700040007000A000A000F00000089
:1042FC00040004003C000000000000000700040063
:10430C000400040007000400040004003C00040046
:10431C00000000003F00040004000400040004003E
:10432C00040004003F000400000000003F000A00ED
:10433C0000003F0000003F0000000F0008000B00D1
:10434C0000003E0002003A000A000B0008000B00BF
:10435C000A003A0002003A0000003F0000003B0057
:10436C000A000A000A000A000A003B0000003B0099
:10437C000A000A000B000A000400070004000700F2
:10438C000A000A003A000A0004003C0004003C0049
:10439C000000070004000700000000000F000A00E6
:1043AC00000000003E000A0000003C0004003C003D
:1043BC0004003F0000003F000A000A003B000A0016
:1043CC000400040007000000000000003C00040092
:1043DC003F003F003F003F003800380038003800F5
:1043EC003F003F0000000000000000003F003F00C5
:1043FC00070007000700070000001C001C00140049
:10440C0000003E0015000A0000001F000100030020
:10441C0000001F0001001F0000001B001500110010
:10442C000000080014000C0000003C0010001C00F0
:10443C00000004001C000200000015001B00150009
:10444C0000000E0015000E0000001C0002001C00F5
:10445C0000000A001500090000001C0014001C00DC
:10446C0000000E001B000E0000000E0015001500D1
:10447C0000001E0001001E000000150015001500B4
:10448C0000001200170012000000150015001200A9
:10449C000000120015001500000000003C00020096
:1044AC00000010000F0000000000040015000400C4
:1044BC0014000A0014000A000000020005000200AB
:1044CC00000004000E0004000000000004000000C6
:1044DC00000008001F000100000007000100070099
:1044EC0000000D000B00000000000C000C00000090
:1044FC0000000000000000000000000000000000B0
:10450C000000000000005F00000000000000070039
:10451C0000000700000014007F0014007F0014004E
:10452C0024002A007F002A00120023001300080038
:10453C006400620036004900550022005000000063
:10454C00050003000000000000001C0022004100D8
:10455C0000000000410022001C00000014000800B4
:10456C003E0008001400080008003E000800080087
:10457C000000500030000000000008000800080097
:10458C00080008000000600060000000000020002F
:10459C0010000800040002000000000000000000F1
:1045AC000000000000005F00000000000000070099
:1045BC0000000700000014007F0014007F001400AE
:1045CC0024002A007F002A00120023001300080098
:1045DC0064006200360049005500220050000000C3
:1045EC00050003000000000000001C002200410038
:1045FC0000000000410022001C0000001400080014
:10460C003E0008001400080008003E0008000800E6
:10461C0000005000300000000000080008000800F6
:10462C00080008000000600060000000000020008E
:10463C001000080004000200000000000000000050
:10464C000000000000005F000000000000000700F8
:10465C0000000700000014007F0014007F0014000D
:10466C0024002A007F002A001200230013000800F7
:10467C006400620036004900550022005000000022
:10468C00050003000000000000001C002200410097
:10469C0000000000410022001C0000001400080073
:1046AC003E0008001400080008003E000800080046
:1046BC000000500030000000000008000800080056
:1046CC0008000800000060006000000000002000EE
:1046DC0010000800040002003E0051004900450093
:1046EC003E00000042007F004000000042006100DC
:1046FC005100490046002100410045004B003100AB
:10470C001800140012007F0010002700450045001F
:10471C00450039003C004A004900490030000100C6
:10472C0071000900050003003600490049004900EA
:10473C00360006004900490029001E000000360022
:10474C00360000000000000056003600000000009B
:10475C000800140022004100000014001400140092
:10476C001400140000004100220014000800020094
:10477C000100510009000600320049007900410097
:10478C003E007E001100110011007E007F004900E8
:10479C004900490036003E00410041004100220022
:1047AC007F004100410022001C007F0049004900AD
:1047BC00490041007F0009000900090001003E008A
:1047CC004100490049007A007F00080008000800F9
:1047DC007F00000041007F004100000020004000ED
:1047EC0041003F0001007F0008001400220041003E
:1047FC007F0040004000400040007F0002000C00A1
:10480C0002007F007F000400080010007F003E00C3
:10481C004100410041003E007F00090009000900F1
:10482C0006003E004100510021005E007F0009009F
:10483C001900290046004600490049004900310092
:10484C00010001007F00010001003F00400040001A
:10485C0040003F001F002000400020001F003F00D0
:10486C004000380040003F006300140008001400B2
:10487C006300070008007000080007006100510089
:10488C0049004500430000007F004100410000004A
:10489C00020004000800100020000000410041004C
:1048AC007F00000004000200010002000400400030
:1048BC0040004000400040000000010002000400E5
:1048CC000000200054005400540078007F00480081
:1048DC0044004400380038004400440044002000E8
:1048EC0038004400440048007F0038005400540055
:1048FC005400180008007E000900010002000C00A2
:10490C005200520052003E007F00080004000400D8
:10491C007800000044007D004000000020004000B2
:10492C0044003D0000007F001000280044000000FF
:10493C00000041007F00400000007C0004001800D3
:10494C00040078007C0008000400040078003800A3
:10495C0044004400440038007C001400140014008F
:10496C00080008001400140018007C007C000800EB
:10497C0004000400080008005400540054002000F7
:10498C0004003F004400400020003C004000400078
:10499C0020007C001C002000400020001C003C007B
:1049AC004000300040003C0044002800100028006B
:1049BC0044000C005000500050003C0044006400C7
:1049CC0054004C0044000000080036004100000078
:1049DC00000000007F0000000000000041003600D5
:1049EC000800000010000800080010000800780003
:1049FC004600410046007800000000000000000066
:104A0C000000000000005F00000000000000070034
:104A1C0000000700000014007F0014007F00140049
:104A2C0024002A007F002A00120023001300080033
:104A3C00640062003600490055002200500000005E
:104A4C00050003000000000000001C0022004100D3
:104A5C0000000000410022001C00000014000800AF
:104A6C003E0008001400080008003E000800080082
:104A7C000000500030000000000008000800080092
:104A8C00080008000000600060000000000020002A
:104A9C0010000800040002000000000000000000EC
:104AAC000000000000005F00000000000000070094
:104ABC0000000700000014007F0014007F001400A9
:104ACC0024002A007F002A00120023001300080093
:104ADC0064006200360049005500220050000000BE
:104AEC00050003000000000000001C002200410033
:104AFC0000000000410022001C000000140008000F
:104B0C003E0008001400080008003E0008000800E1
:104B1C0000005000300000000000080008000800F1
:104B2C000800080000006000600000000000200089
:104B3C00100008000400020000000000000000004B
:104B4C000000000000005F000000000000000700F3
:104B5C0000000700000014007F0014007F00140008
:104B6C0024002A007F002A001200230013000800F2
:104B7C00640062003600490055002200500000001D
:104B8C00050003000000000000001C002200410092
:104B9C0000000000410022001C000000140008006E
:104BAC003E0008001400080008003E000800080041
:104BBC000000500030000000000008000800080051
:104BCC0008000800000060006000000000002000E9
:104BDC001000080004000200000006000900090093
:104BEC000600000042007F0040000000420061000F
:104BFC005100490046002100410045004B003100A6
:104C0C001800140012007F0010002700450045001A
:104C1C00450039003C004A004900490030000100C1
:104C2C0071000900050003003600490049004900E5
:104C3C00360006004900490029001E00000036001D
:104C4C003600000000000000560036000000000096
:104C5C00080014002200410000001400140014008D
:104C6C00140014000000410022001400080002008F
:104C7C0001005100090006007E0011001100110016
:104C8C007E007F0049004900490031007F00490047
:104C9C004900490036007F000100010001000300BB
:104CAC0060003E00210021007F007F004900490088
:104CBC0049004100770008007F00080077002200BF
:104CCC0041004900490036007F0010000800040034
:104CDC007F007F001000090004007F007F000800A7
:104CEC0014002200410040003E00010001007F0042
:104CFC007F0002000C0002007F007F00080008000B
:104D0C0008007F003E004100410041003E007F0052
:104D1C000100010001007F007F000900090009006B
:104D2C0006003E004100410041002200010001004C
:104D3C007F000100010027004800480048003F00A8
:104D4C001E0021007F0021001E00630014000800DB
:104D5C00140063003F00200020003F0060000700AB
:104D6C000800080008007F007F0040007F00400022
:104D7C007F003F0020003F0020007F0001007F00EB
:104D8C004800480030007F004800300000007F00E1
:104D9C0000007F004800480030002200410049001C
:104DAC0049003E007F0008003E0041003E004600E6
:104DBC002900190009007F00200054005400540001
:104DCC0078003C004A004A004A0030007C00540045
:104DDC005400280000007C000400040004000400BF
:104DEC0060003800240024007C003800540054007B
:104DFC00540018006C0010007C0010006C000000C7
:104E0C0044005400540028007C00200010000800CE
:104E1C007C007C002100120009007C007C0010004A
:104E2C0028004400000040003800040004007C000E
:104E3C007C000800100008007C007C0010001000B2
:104E4C0010007C00380044004400440038007C0012
:104E5C000400040004007C007C0014001400140006
:104E6C000800380044004400440000000400040022
:104E7C007C00040004000C005000500050003C006A
:104E8C00080014007C0014000800440028001000E6
:104E9C00280044003C00200020003C0060000C0076
:104EAC001000100010007C007C0040007C004000D2
:104EBC007C003C0020003C0020007C0004007C00B6
:104ECC005000500020007C005000200000007C00AE
:104EDC0000007C00500050002000280044005400CA
:104EEC00540038007C0010003800440038004800A2
:104EFC005400340014007C0000000000000000008E
:104F0C000000000000003E004500510045003E003E
:104F1C0000003E006B006F006B003E0000001C00A8
:104F2C003E007C003E001C00000018003C007E008F
:104F3C003C0018000000300036007F0036003000C6
:104F4C00000018005C007E005C00180000000000EF
:104F5C000000000000000000000000000000000045
:104F6C000000000000000000000000000000000035
:104F7C0000000000000000000000000000003000F5
:104F8C0048004A0036000E00000006002900790097
:104F9C0029000600000000000000000000000000D6
:104FAC00000060007E000A0035003F0000002A006F
:104FBC001C0036001C002A00000000007F003E0090
:104FCC001C000800000008001C003E007F000000D0
:104FDC000000140036007F003600140000000000B2
:104FEC005F0000005F0000000000060009007F0069
:104FFC0001007F00000022004D00550059002200E6
:10500C000000600060006000600000000000140000
:10501C00B600FF00B60014000000040006007F007C
:10502C00060004000000100030007F00300010006B
:10503C000000080008003E001C00080000000800EA
:10504C001C003E00080008000000780040004000F2
:10505C0040004000000008003E0008003E00080030
:10506C00000030003C003F003C003000000003001A
:10507C000F003F000F0003000000000000000000C4
:10508C00000000000000000006005F0006000000A9
:10509C0000000700030000000700030000002400CC
:1050AC007E0024007E002400000024002B006A00F7
:1050BC00120000000000630013000800640063008D
:1050CC00000036004900560020005000000000008F
:1050DC000700030000000000000000003E0041003B
:1050EC00000000000000000041003E000000000035
:1050FC00000008003E001C003E00080000000800F4
:10510C0008003E000800080000000000E0006000FD
:10511C00000000000000080008000800080008005B
:10512C000000000060006000000000000000200093
:10513C00100008000400020000003E00510049006D
:10514C0045003E000000000042007F0040000000CF
:10515C000000620051004900490046000000220096
:10516C0049004900490036000000180014001200E4
:10517C007F00100000002F00490049004900310059
:10518C0000003C004A0049004900300000000100CA
:10519C0071000900050003000000360049004900B9
:1051AC0049003600000006004900490029001E0095
:1051BC00000000006C006C0000000000000000000B
:1051CC00EC006C000000000000000800140022003D
:1051DC0041000000000024002400240024002400CE
:1051EC000000000041002200140008000000020032
:1051FC00010059000900060000003E0041005D005E
:10520C0055001E0000007E001100110011007E00F0
:10521C0000007F00490049004900360000003E00B4
:10522C00410041004100220000007F00410041008C
:10523C0041003E0000007F00490049004900410048
:10524C0000007F00090009000900010000003E0079
:10525C004100490049007A0000007F000800080066
:10526C0008007F000000000041007F0041000000AA
:10527C00000030004000400040003F0000007F0074
:10528C00080014002200410000007F004000400094
:10529C004000400000007F000200040002007F007C
:1052AC0000007F000200040008007F0000003E00A8
:1052BC004100410041003E0000007F000900090050
:1052CC000900060000003E004100510021005E0074
:1052DC0000007F000900090019006600000026008C
:1052EC0049004900490032000000010001007F0024
:1052FC000100010000003F004000400040003F0062
:10530C0000001F002000400020001F0000003F0094
:10531C0040003C0040003F00000063001400080007
:10532C00140063000000070008007000080007006C
:10533C00000071004900450043000000000000001F
:10534C007F00410041000000000002000400080042
:10535C001000200000000000410041007F00000010
:10536C000000040002000100020004008000800024
:10537C008000800080008000000000000300070017
:10538C00000000000000200054005400540078007D
:10539C0000007F0044004400440038000000380046
:1053AC00440044004400280000003800440044003D
:1053BC0044007F00000038005400540054000800E2
:1053CC00000008007E000900090000000000180021
:1053DC00A400A400A4007C0000007F0004000400D2
:1053EC00780000000000000000007D00400000007C
:1053FC0000004000800084007D00000000007F0061
:10540C0010002800440000000000000000007F0095
:10541C004000000000007C0004001800040078002C
:10542C0000007C000400040078000000000038003C
:10543C0044004400440038000000FC0044004400D8
:10544C004400380000003800440044004400FC00D4
:10545C00000044007800440004000800000008002C
:10546C005400540054002000000004003E0044008E
:10547C002400000000003C00400020007C000000E4
:10548C0000001C002000400020001C0000003C001C
:10549C006000300060003C0000006C001000100048
:1054AC006C00000000009C00A00060003C000000AC
:1054BC0000006400540054004C0000000000080080
:1054CC003E00410041000000000000000000770099
:1054DC000000000000000000410041003E000800F8
:1054EC0000000200010002000100000000003C006E
:1054FC002600230026003C0000001E00A100E10055
:10550C002100120000003D00400020007D00000042
:10551C000000380054005400550009000000200021
:10552C00550055005500780000002000550054002F
:10553C0055007800000020005500550054007800FC
:10554C0000002000570055005700780000001C0098
:10555C00A200E200220014000000380055005500A3
:10556C005500080000003800550054005500080094
:10557C0000003800550055005400080000000000E1
:10558C0001007C00410000000000000001007D00D3
:10559C00410000000000000001007C004000000001
:1055AC000000700029002400290070000000780021
:1055BC002F0025002F00780000007C0054005400C0
:1055CC00550045000000340054007C005400580085
:1055DC0000007E0009007F004900490000003800EF
:1055EC00450045003900000000003800450044002B
:1055FC00390000000000390045004400380000006C
:10560C0000003C00410021007D00000000003D0036
:10561C00410020007C00000000009C00A100600004
:10562C003D00000000003D00420042003D00000033
:10563C0000003C00410040003D0000008000700074
:10564C006800580038000400000048003E00490083
:10565C004900620000007E0061005D0043003F00D5
:10566C00000022001400080014002200000040007A
:10567C0088007E0009000200000020005400550044
:10568C00550078000000000000007D004100000083
:10569C0000003800440045003900000000003C00C8
:1056AC00400021007D00000000007A0009000A0083
:1056BC007100000000007A00110022007900000047
:1056CC00000008005500550055005E0000004E001B
:1056DC00510051004E0000000000300048004D0009
:1056EC00400020003E0041005D004B0055003E0094
:1056FC00040004000400040004001C000000170057
:10570C0008004C006A00500000001700080034002C
:10571C002A0078000000000030007D0030000000FE
:10572C000000080014000000080014000000140021
:10573C00080000001400080044001100440011008F
:10574C0044001100AA005500AA005500AA005500FB
:10575C00BB00EE00BB00EE00BB00EE000000000042
:10576C000000FF0000000000080008000800FF0017
:10577C0000000000000070002800250029007000C7
:10578C000000700029002500290070000000700046
:10579C0029002500280070003E0041005D005500E6
:1057AC0041003E000A00FB000000FF00000000006A
:1057BC000000FF000000FF00000000000A00FA00DB
:1057CC000200FE00000000000A000B0008000F00A1
:1057DC0000000000000018002400660024000000F7
:1057EC00000029002A007C002A002900080008007B
:1057FC000800F800000000000000000000000F008E
:10580C00080008000800080008000F000800080045
:10581C00080008000800F80008000800000000005C
:10582C000000FF000800080008000800080008003D
:10583C0008000800080008000800FF000800080025
:10584C000000200056005500560079000000700042
:10585C002A0025002A00710000000F0008000B0030
:10586C000A000A000000FE000200FA000A000A000A
:10587C000A000B0008000B000A000A000A00FA00DC
:10588C000200FA000A000A000000FF000000FB0002
:10589C000A000A000A000A000A000A000A000A00AC
:1058AC000A00FB000000FB000A000A0000005D007B
:1058BC002200220022005D00000022005500590049
:1058CC0030000000000008007F00490041003E004D
:1058DC0000007C00550055005500440000007C0081
:1058EC00550054005500440000007C005500550044
:1058FC0054004400000000000000070000000000FD
:10590C000000000044007D00450000000000000085
:10591C0045007D00450000000000000045007C00B3
:10592C00450000000800080008000F0000000000FF
:10593C00000000000000F80008000800FF00FF0055
:10594C00FF00FF00FF00FF00F000F000F000F0008F
:10595C00F000F000000000000000770000000000E4
:10596C000000000045007D00440000000F000F0007
:10597C000F000F000F000F0000003C00420043001E
:10598C003D0000000000FE004A004A003400000008
:10599C0000003C00430043003D00000000003D00BF
:1059AC00430042003C0000000000320049004A0065
:1059BC003100000000003A004500460039000000AC
:1059CC000000FC00200020001C0000000000FE0075
:1059DC00AA002800100000000000FF00A500240011
:1059EC001800000000003C00400041003D00000099
:1059FC0000003C00410041003D00000000003D0063
:105A0C00410040003C00000000009C00A000610030
:105A1C003D000000000004000800710009000400B3
:105A2C000000000002000200020000000000000064
:105A3C000700030000000000000000000800080040
:105A4C00080000000000000024002E0024000000CC
:105A5C00000024002400240024002400050017006A
:105A6C000A0034002A0078000000060009007F00BC
:105A7C0001007F00000022004D005500590022005B
:105A8C000000080008002A000800080000000000C0
:105A9C0008001800180000000000060009000900AA
:105AAC0006000000000000000800000008000000D4
:105ABC0000000000080000000000000000000200D0
