:020000040800F2
:1000000000000220752A0008092A0008152A0008A5
:100010001B2A0008212A0008272A000800000000E7
:100020000000000000000000000000002D2A000871
:10003000392A000800000000452A0008512A00085B
:10004000C52A0008C52A0008C52A0008C52A0008D4
:10005000C52A0008C52A0008C52A0008C52A0008C4
:10006000C52A0008C52A0008C52A0008C52A0008B4
:10007000C52A0008C52A0008C52A0008C52A0008A4
:10008000C52A0008C52A0008C52A0008000000008B
:10009000000000000000000000000000C52A000869
:1000A000C52A0008C52A0008C52A0008C52A000874
:1000B000C52A0008C52A0008C52A0008C52A000864
:1000C000C52A0008C52A0008C52A0008C52A000854
:1000D000C52A0008C52A0008C52A0008000000003B
:1000E000C52A0008C52A0008C52A0008000000002B
:1000F000000000000000000000000000C52A000809
:1001000000000000C52A0008C52A0008C52A00080A
:1001100000000000000000000000000000000000DF
:10012000C52A0008C52A0008C52A0008C52A0008F3
:10013000C52A0008000000000000000000000000C8
:10014000000000000000000000000000C52A0008B8
:10015000C52A0008C52A0008C52A0008C52A0008C3
:10016000C52A0008C52A00080000000000000000A1
:10017000000000000000000000000000000000007F
:1001800000000000C52A0008000000000000000078
:08019000C52A0008C52A000879
:100198000348044B834202D0034B03B1184770470E
:1001A800140A0020140A002000000000054806492F
:1001B800091A891001EBD171491002D0034B03B120
:1001C80018477047140A0020140A00200000000095
:1001D80010B5064C237843B9FFF7DAFF044B13B187
:1001E8000448AFF300800123237010BD140A0020D7
:1001F80000000000C82A000808B5044B1BB10449D8
:100208000448AFF30080BDE80840CFE700000000D5
:10021800180A0020C82A000853B94AB9002908BF9B
:1002280000281CBF4FF0FF314FF0FF3000F072B9CB
:10023800ADF1080C6DE904CE00F006F8DDF804E035
:10024800DDE9022304B070472DE9F047089E044613
:100258008846002B4BD18A42154667D9B2FA82F2FA
:100268004AB1C2F1200701FA02F320FA07F79540D4
:1002780047EA030894404FEA154E230CB8FBFEF7F3
:100288001FFA85FC0EFB178843EA084307FB0CF1AD
:10029800994209D9EB1807F1FF3080F01B81994288
:1002A80040F21881023F2B445B1AA4B2B3FBFEF064
:1002B8000EFB103344EA034400FB0CFCA44509D9A7
:1002C8002C1900F1FF3380F00781A44540F2048126
:1002D80002382C4440EA0740A4EB0C0400271EB166
:1002E800D4400023C6E900433946BDE8F0878B4275
:1002F80009D9002E00F0EB800027C6E90001384636
:100308003946BDE8F087B3FA83F7002F47D18B420F
:1003180002D3824200F2FA80841A61EB03030120BF
:100328009846002EE0D0C6E90048DDE702B9FFDEB6
:10033800B2FA82F2002A40F08F80491B4FEA154E2C
:100348001FFA85F80127B1FBFEFC230C0EFB1C11DC
:1003580043EA014308FB0CF1994207D9EB180CF169
:10036800FF3002D2994200F2CD808446591AA3B2D6
:10037800B1FBFEF00EFB101443EA044408FB00F83E
:10038800A04507D92C1900F1FF3302D2A04500F28D
:10039800B6801846A4EB080440EA0C409FE7C7F172
:1003A800200CBB4022FA0CFE4EEA030E01FA07F4B9
:1003B80020FA0CF521FA0CF34FEA1E482543B3FB4B
:1003C800F8F92C0C08FB19331FFA8EFA44EA034398
:1003D80009FB0AF49C4202FA07F200FA07F10BD96A
:1003E8001EEB030309F1FF3080F087809C4240F246
:1003F8008480A9F1020973441B1BADB2B3FBF8F06A
:1004080008FB103345EA034400FB0AFAA24508D961
:100418001EEB040400F1FF336BD2A24569D9023800
:10042800744440EA0940A0FB0289A4EB0A044C4545
:10043800C2464B4654D351D0002E69D0B1EB0A05C1
:1004480064EB030404FA0CFCFD40FC404CEA05058F
:10045800C6E90054002747E7C2F1200320FA03F752
:10046800954001FA02F021FA03F34FEA154E38439A
:10047800010CB3FBFEF71FFA85F80EFB173341EAB0
:10048800034107FB08F38B4204FA02F407D9691801
:1004980007F1FF3C2FD28B422DD9023F2944CB1ABA
:1004A80081B2B3FBFEF00EFB103341EA034100FBBF
:1004B80008F38B4207D9691800F1FF3C17D28B4229
:1004C80015D902382944C91A40EA07473BE7374695
:1004D800304609E70746E7E61846FBE64145ABD252
:1004E800B8EB020A69EB0E0201381346A4E760462E
:1004F800E9E7184695E76746D1E781467CE7023881
:100508002C4447E7ACF1020C2B442FE7384608E7A8
:100518003746E9E6704700BF70B50D4E0D4D761BA6
:10052800B61006D00024013455F8043B9847A6427B
:10053800F9D1094E094D761B02F0C2FAB61006D061
:100548000024013455F8043B9847A642F9D170BD00
:10055800B82B0008B82B0008BC2B0008B82B0008E3
:10056800F0B4860743D0541E002A3ED0CAB20346D0
:1005780002E014F1FF3438D303F8012B9D07F8D1BA
:10058800032C2BD9CDB245EA05250F2C45EA0545A4
:1005980016D9A4F110073F0903F1200606EB071648
:1005A80003F1100242E9045542E902551032B24201
:1005B800F8D104F00F040137032C03EB07130DD90E
:1005C8001E462246043A032A46F8045BFAD8221F3C
:1005D80022F003020432134404F003042CB1C9B21C
:1005E8001C4403F8011B9C42FBD1F0BC7047144625
:1005F8000346C5E780B500AF0E4B1B680D4A43F4B0
:10060800007313600B4B1B680A4A43F48063136042
:10061800084B1B68074A43F480731360032000F0FB
:1006280029F9002000F008F802F0C4F90023184660
:1006380080BD00BF003C024080B582B000AF78604A
:10064800124B1A68124B1B7819464FF47A73B3FB96
:10065800F1F3B2FBF3F3184600F033F90346002B2D
:1006680001D001230EE07B680F2B0AD8002279689D
:100678004FF0FF3000F009F9064A7B681360002349
:1006880000E0012318460837BD4680BD100A002047
:10069800040000200000002080B400AF054B1B7848
:1006A8001A46054B1B681344034A136000BFBD4636
:1006B80080BC704704000020300A002080B400AFDE
:1006C800024B1B681846BD4680BC7047300A0020A4
:1006D80080B584B000AF7860FFF7F0FFB8607B6842
:1006E800FB60FB68B3F1FF3F05D0094B1B781A4646
:1006F800FB681344FB6000BFFFF7E0FF0246BB68DE
:10070800D31AFA689A42F7D800BF1037BD4680BDA1
:100718000400002080B485B000AF78607B6803F0E7
:100728000703FB600C4BDB68BB60BA684FF6FF033E
:100738001340BB60FB681A02BB68134343F0BF63F6
:1007480043F40033BB60044ABB68D36000BF14376E
:10075800BD4680BC704700BF00ED00E080B400AF2C
:10076800044BDB681B0A03F007031846BD4680BC30
:10077800704700BF00ED00E080B483B000AF0346CF
:100788003960FB7197F90730002B0ADB3B68DAB256
:100798000C4997F907301201D2B20B4483F80023B1
:1007A8000AE03B68DAB20849FB7903F00F03043B1F
:1007B8001201D2B20B441A7600BF0C37BD4680BC7A
:1007C800704700BF00E100E000ED00E080B489B0B0
:1007D80000AFF860B9607A60FB6803F00703FB615B
:1007E800FB69C3F10703042B28BF0423BB61FB6922
:1007F8000433062B02D9FB69033B00E000237B612D
:100808004FF0FF32BB6902FA03F3DA43BB681A40C0
:100818007B699A404FF0FF317B6901FA03F3D943B2
:100828007B680B40134318462437BD4680BC70478D
:1008380080B582B000AF78607B68013BB3F1807F00
:1008480001D301230FE00A4A7B68013B53600F2163
:100858004FF0FF30FFF790FF054B00229A60044BE2
:1008680007221A60002318460837BD4680BD00BF1E
:1008780010E000E080B582B000AF78607868FFF7DC
:1008880049FF00BF0837BD4680BD80B586B000AFC0
:100898000346B9607A60FB7300237B61FFF75EFF54
:1008A80078617A68B9687869FFF790FF024697F926
:1008B8000F3011461846FFF75FFF00BF1837BD46D7
:1008C80080BD80B582B000AF78607868FFF7B0FF70
:1008D800034618460837BD4680BD000080B489B07D
:1008E80000AF7860396000237B6100233B610023FF
:1008F800BB610023FB6159E10122FB6902FA03F3A2
:100908007B613B681B687A6913403B613A697B6984
:100918009A4240F048813B685B68012B0BD03B68EA
:100928005B68022B07D03B685B68112B03D03B68E0
:100938005B68122B30D17B689B68BB61FB695B00ED
:10094800032202FA03F3DB43BA691340BB613B6835
:10095800DA68FB695B0002FA03F3BA691343BB6107
:100968007B68BA699A607B685B68BB610122FB6936
:1009780002FA03F3DB43BA691340BB613B685B6867
:100988001B0903F00102FB6902FA03F3BA69134376
:10099800BB617B68BA695A607B68DB68BB61FB69CD
:1009A8005B00032202FA03F3DB43BA691340BB611D
:1009B8003B689A68FB695B0002FA03F3BA69134360
:1009C800BB617B68BA69DA603B685B68022B03D05D
:1009D8003B685B68122B23D1FB69DA087B68083215
:1009E80053F82230BB61FB6903F007039B000F2219
:1009F80002FA03F3DB43BA691340BB613B681A6927
:100A0800FB6903F007039B0002FA03F3BA69134377
:100A1800BB61FB69DA087B680832B96943F82210C0
:100A28007B681B68BB61FB695B00032202FA03F366
:100A3800DB43BA691340BB613B685B6803F00302A0
:100A4800FB695B0002FA03F3BA691343BB617B6875
:100A5800BA691A603B685B6803F08053002B00F0AA
:100A6800A2800023FB60564B5B6C554A43F48043DD
:100A78005364534B5B6C03F48043FB60FB68514A3F
:100A8800FB699B08023352F82330BB61FB6903F012
:100A980003039B000F2202FA03F3DB43BA691340F6
:100AA800BB617B68484A934219D07B68474A9342A6
:100AB80013D07B68464A93420DD07B68454A9342DF
:100AC80007D07B68444A934201D1042308E00723F6
:100AD80006E0032304E0022302E0012300E00023F0
:100AE800FA6902F0030292009340BA691343BB61AA
:100AF8003449FB699B080233BA6941F82320374B14
:100B08001B68BB613B69DB43BA691340BB613B6847
:100B18005B6803F48033002B03D0BA693B69134345
:100B2800BB612E4ABB6913602C4B5B68BB613B6998
:100B3800DB43BA691340BB613B685B6803F400336D
:100B4800002B03D0BA693B691343BB61234ABB69D5
:100B58005360224B9B68BB613B69DB43BA69134016
:100B6800BB613B685B6803F48013002B03D0BA6950
:100B78003B691343BB61194ABB699360174BDB6838
:100B8800BB613B69DB43BA691340BB613B685B6887
:100B980003F40013002B03D0BA693B691343BB610C
:100BA8000E4ABB69D360FB690133FB61FB690F2BFC
:100BB8007FF6A2AE00BF2437BD4680BC704700BF99
:100BC80000380240003801400000024000040240A2
:100BD80000080240000C024000100240003C0140A6
:100BE80080B483B000AF78600B467B8013467B707F
:100BF8007B78002B03D07A887B689A6103E07B8836
:100C08001A047B689A6100BF0C37BD4680BC7047E8
:100C180080B584B000AF78607B68002B01D10123D8
:100C28001FE17B6893F83D30DBB2002B06D17B686F
:100C3800002283F83C20786801F0D2F97B682422EE
:100C480083F83D207B681B681A687B681B6822F064
:100C580001021A607B681B681A687B681B6842F48B
:100C680000421A607B681B681A687B681B6822F45C
:100C780000421A6001F042F8F8607B685B687B4AC2
:100C8800934207D8FB687A4A934294BF0123002312
:100C9800DBB206E0FB68774A934294BF0123002346
:100CA800DBB2002B01D00123DBE0FB68724AA2FB18
:100CB80003239B0CBB607B681B685B6823F03F01C8
:100CC8007B681B68BA680A435A607B681B681B6AA2
:100CD80023F03F017B685B68644A934202D8BB6893
:100CE800013309E0BB684FF4967202FB03F3634AD1
:100CF800A2FB03239B0901337A6812680B43136232
:100D08007B681B68DB6923F44F4222F0FF027B6893
:100D18005B6856498B420DD8FB68591E7B685B6837
:100D28005B00B1FBF3F30133C3F30B03042B38BFB0
:100D380004234FE07B689B68002B11D1FB68581E89
:100D48007B6859680B465B000B44B0FBF3F3013337
:100D5800C3F30B03002B0CBF01230023DBB212E00B
:100D6800FB68581E7B6859680B469B000B4499002A
:100D78000B44B0FBF3F30133C3F30B03002B0CBF9D
:100D880001230023DBB2002B01D0012322E07B6882
:100D98009B68002B0ED1FB68581E7B6859680B4670
:100DA8005B000B44B0FBF3F30133C3F30B0343F4D1
:100DB80000430FE0FB68581E7B6859680B469B0090
:100DC8000B4499000B44B0FBF3F30133C3F30B035B
:100DD80043F44043796809681343CB617B681B6817
:100DE8001B6823F0C0017B68DA697B681B6A1A43B9
:100DF8007B681B680A431A607B681B689B6823F43E
:100E0800034323F0FF037A6811697A68D2681143B3
:100E18007A6812680B4393607B681B68DB6823F071
:100E2800FF017B685A697B689B691A437B681B686A
:100E38000A43DA607B681B681A687B681B6842F0A3
:100E480001021A607B6800221A647B68202283F8FA
:100E58003D207B6800221A637B68002283F83E20CD
:100E6800002318461037BD4680BD00BFA08601008C
:100E78007F841E00FF083D0083DE1B43D34D6210B4
:100E880080B588B002AFF8607A601A460B467B815D
:100E980013463B81FFF712FC7861FB6893F83D30FD
:100EA800DBB2202B40F0E0807B69009319230122FC
:100EB8007049F86800F064F90346002B01D002235A
:100EC800D3E0FB6893F83C30012B01D10223CCE03E
:100ED800FB68012283F83C20FB681B681B6803F051
:100EE8000103012B07D0FB681B681A68FB681B68A5
:100EF80042F001021A60FB681B681A68FB681B68ED
:100F080022F400621A60FB68212283F83D20FB6806
:100F1800102283F83E20FB6800221A64FB687A6876
:100F28005A62FB683A895A85FB685B8D9AB2FB68FE
:100F38001A85FB68504ADA6279897B693A6AF868E7
:100F480000F09CF80346002B01D001238DE000231C
:100F58003B61FB681B685B693B61FB681B689B69BD
:100F68003B613B6966E07A69396AF86800F0DEF946
:100F78000346002B0DD0FB681B6C042B07D1FB68C4
:100F88001B681A68FB681B6842F400721A60012328
:100F98006BE0FB685B6A1A78FB681B681A61FB6880
:100FA8005B6A5A1CFB685A62FB685B8D9BB2013B0B
:100FB8009AB2FB685A85FB681B8D013B9AB2FB68A5
:100FC8001A85FB681B685B6903F00403042B1BD1BB
:100FD800FB681B8D002B17D0FB685B6A1A78FB68CF
:100FE8001B681A61FB685B6A5A1CFB685A62FB68DB
:100FF8005B8D9BB2013B9AB2FB685A85FB681B8DDF
:10100800013B9AB2FB681A857A69396AF86800F078
:10101800CEF90346002B0DD0FB681B6C042B07D1BF
:10102800FB681B681A68FB681B6842F400721A6048
:1010380001231AE0FB681B8D002B94D1FB681B6809
:101048001A68FB681B6842F400721A60FB68202269
:1010580083F83D20FB68002283F83E20FB680022CD
:1010680083F83C20002300E0022318461837BD46C9
:1010780080BD00BF020010000000FFFF80B588B0EF
:1010880002AFF8607A603B600B467B81FB68DB6AE5
:101098007B617B69082B06D07B69012B03D07B69B8
:1010A80013F5803F08D1FB681B681A68FB681B684A
:1010B80042F480721A600BE0FB681B6B122B07D19D
:1010C800FB681B681A68FB681B6842F480721A6028
:1010D8003B6800937B6800224FF00111F86800F02C
:1010E8004FF80346002B0CD0FB681B681B6803F401
:1010F8008073002B03D0FB684FF400721A6403233B
:1011080035E0FB681B69B3F5804F08D17B89DBB2FA
:101118001A46FB681B6802F0FE021A611BE07B8915
:10112800DB11DBB203F00603DBB263F00F03DAB2C4
:10113800FB681B681A613B687A680F49F86800F019
:1011480076F80346002B01D0012310E07B89DAB240
:10115800FB681B681A613B687A680849F86800F000
:1011680066F80346002B01D0012300E0002318464F
:101178001837BD4680BD00BF08000100020001000D
:1011880080B584B000AFF860B9603B601346FB716E
:1011980025E03B68B3F1FF3F21D0FFF78FFA024605
:1011A800BB69D31A3A689A4202D33B68002B16D11E
:1011B800FB6800221A63FB68202283F83D20FB6845
:1011C800002283F83E20FB681B6C43F02002FB687A
:1011D8001A64FB68002283F83C20012323E0BB68E3
:1011E8001B0CDBB2012B0DD1FB681B685B69DA4372
:1011F800BB6813409BB2002B0CBF01230023DBB25A
:101208001A460CE0FB681B689B69DA43BB6813400D
:101218009BB2002B0CBF01230023DBB21A46FB79DB
:101228009A42B6D0002318461037BD4680BD80B517
:1012380084B000AFF860B9607A603B6051E0FB6849
:101248001B685B6903F48063B3F5806F23D1FB6887
:101258001B681A68FB681B6842F400721A60FB6816
:101268001B686FF480625A61FB6800221A63FB688E
:10127800202283F83D20FB68002283F83E20FB688B
:101288001B6C43F00402FB681A64FB68002283F8B5
:101298003C20012346E07B68B3F1FF3F21D0FFF7F4
:1012A8000DFA02463B68D31A7A689A4202D37B68E1
:1012B800002B16D1FB6800221A63FB68202283F8F2
:1012C8003D20FB68002283F83E20FB681B6C43F03E
:1012D8002002FB681A64FB68002283F83C20012383
:1012E80020E0BB681B0CDBB2012B0CD1FB681B6830
:1012F8005B69DA43BB6813409BB2002B14BF012320
:101308000023DBB20BE0FB681B689B69DA43BB6810
:1013180013409BB2002B14BF01230023DBB2002B28
:101328008DD1002318461037BD4680BD80B584B0E6
:1013380000AFF860B9607A602DE0F86800F078F8DE
:101348000346002B01D001232DE0BB68B3F1FF3F1A
:1013580021D0FFF7B3F902467B68D31ABA689A42DC
:1013680002D3BB68002B16D1FB6800221A63FB6806
:10137800202283F83D20FB68002283F83E20FB688A
:101388001B6C43F02002FB681A64FB68002283F898
:101398003C20012307E0FB681B685B6903F08003BE
:1013A800802BCAD1002318461037BD4680BD80B5B2
:1013B80084B000AFF860B9607A602DE0F86800F09A
:1013C80037F80346002B01D001232DE0BB68B3F1A9
:1013D800FF3F21D0FFF772F902467B68D31ABA683B
:1013E8009A4202D3BB68002B16D1FB6800221A630D
:1013F800FB68202283F83D20FB68002283F83E200A
:10140800FB681B6C43F02002FB681A64FB6800222F
:1014180083F83C20012307E0FB681B685B6903F045
:101428000403042BCAD1002318461037BD4680BDDB
:1014380080B483B000AF78607B681B685B6903F495
:101448008063B3F5806F1BD17B681B686FF4806283
:101458005A617B6800221A637B68202283F83D204A
:101468007B68002283F83E207B681B6C43F00402F3
:101478007B681A647B68002283F83C20012300E023
:10148800002318460C37BD4680BC704780B586B02F
:1014980000AF78607B68002B01D101235BE27B6899
:1014A8001B6803F00103002B75D0A34B9B6803F066
:1014B8000C03042B0CD0A04B9B6803F00C03082BE7
:1014C80012D19D4B5B6803F48003B3F5800F0BD1F9
:1014D800994B1B6803F40033002B5BD07B685B6877
:1014E800002B57D1012336E27B685B68B3F5803F58
:1014F80006D1914B1B68904A43F4803313601DE07A
:101508007B685B68B3F5A02F0CD18B4B1B688A4AAC
:1015180043F480231360884B1B68874A43F4803365
:1015280013600BE0844B1B68834A23F480331360F9
:10153800814B1B68804A23F4802313607B685B68B7
:10154800002B13D0FFF7BAF8386108E0FFF7B6F8B8
:1015580002463B69D31A642B01D90323FBE1764B7E
:101568001B6803F40033002BF0D014E0FFF7A6F853
:10157800386108E0FFF7A2F802463B69D31A642BEA
:1015880001D90323E7E16C4B1B6803F40033002BFC
:10159800F0D100E000BF7B681B6803F00203002B5A
:1015A80063D0654B9B6803F00C03002B0BD0624B98
:1015B8009B6803F00C03082B1CD15F4B5B6803F49A
:1015C8008003002B16D15C4B1B6803F00203002B31
:1015D80005D07B68DB68012B01D00123BBE1564BAA
:1015E8001B6823F0F8027B681B69DB005249134330
:1015F8000B603AE07B68DB68002B20D04F4B012260
:101608001A60FFF75BF8386108E0FFF757F8024601
:101618003B69D31A022B01D903239CE1464B1B6873
:1016280003F00203002BF0D0434B1B6823F0F802B1
:101638007B681B69DB00404913430B6015E03F4B97
:1016480000221A60FFF73AF8386108E0FFF736F829
:1016580002463B69D31A022B01D903237BE1364B9F
:101668001B6803F00203002BF0D17B681B6803F0B2
:101678000803002B30D07B685B69002B16D0304BF9
:1016880001221A60FFF71AF8386108E0FFF716F828
:1016980002463B69D31A022B01D903235BE1264B8F
:1016A8005B6F03F00203002BF0D015E0244B0022FF
:1016B8001A60FFF703F8386108E0FEF7FFFF0246FB
:1016C8003B69D31A022B01D9032344E11A4B5B6F00
:1016D80003F00203002BF0D17B681B6803F00403BE
:1016E800002B00F0A0800023FB75134B1B6C03F04C
:1016F8008053002B0FD10023BB600F4B1B6C0E4A8D
:1017080043F0805313640C4B1B6C03F08053BB6095
:10171800BB680123FB750B4B1B6803F48073002B1C
:1017280021D1084B1B68074A43F480731360FEF706
:10173800C5FF386111E000BF003802400000474291
:10174800800E474200700040FEF7B8FF02463B6932
:10175800D31A022B01D90323FDE0814B1B6803F444
:101768008073002BF0D07B689B68012B06D17D4BE2
:101778001B6F7C4A43F0010313671CE07B689B687E
:10178800052B0CD1774B1B6F764A43F00403136784
:10179800744B1B6F734A43F0010313670BE0714BE3
:1017A8001B6F704A23F0010313676E4B1B6F6D4A62
:1017B80023F0040313677B689B68002B15D0FEF7A2
:1017C8007DFF38610AE0FEF779FF02463B69D31ACC
:1017D80041F28832934201D90323BCE0614B1B6F6D
:1017E80003F00203002BEED014E0FEF767FF386128
:1017F8000AE0FEF763FF02463B69D31A41F28832DA
:10180800934201D90323A6E0564B1B6F03F0020352
:10181800002BEED1FB7D012B05D1524B1B6C514A9D
:1018280023F0805313647B689B69002B00F092803F
:101838004C4B9B6803F00C03082B5CD07B689B69BE
:10184800022B41D1484B00221A60FEF737FF38615E
:1018580008E0FEF733FF02463B69D31A022B01D991
:10186800032378E03F4B1B6803F00073002BF0D193
:101878007B68DA697B681B6A1A437B685B6A9B0131
:101888001A437B689B6A5B08013B1B041A437B680D
:10189800DB6A1B06334913434B60334B01221A6042
:1018A800FEF70CFF386108E0FEF708FF02463B69C7
:1018B800D31A022B01D903234DE02A4B1B6803F0EE
:1018C8000073002BF0D045E0274B00221A60FEF78A
:1018D800F5FE386108E0FEF7F1FE02463B69D31ACF
:1018E800022B01D9032336E01E4B1B6803F000735B
:1018F800002BF0D12EE07B689B69012B01D10123DD
:1019080029E0184B9B68FB60FB6803F480027B6846
:10191800DB699A421CD1FB6803F03F027B681B6AB3
:101928009A4215D1FA6847F6C07313407A68526A2A
:1019380093420DD1FB6803F440327B689B6A9A425C
:1019480006D1FB6803F070627B68DB6A9A4201D0BB
:10195800012300E0002318461837BD4680BD00BFAC
:1019680000700040003802406000474280B584B0F3
:1019780000AF786039607B68002B01D10123CCE08F
:10198800684B1B6803F00F033A689A420CD9654B01
:101998003A68D2B21A70634B1B6803F00F033A68B7
:1019A8009A4201D00123B8E07B681B6803F0020368
:1019B800002B20D07B681B6803F00403002B05D0A4
:1019C800594B9B68584A43F4E05393607B681B6803
:1019D80003F00803002B05D0534B9B68524A43F48D
:1019E80060439360504B9B6823F0F0027B689B68D0
:1019F8004D4913438B607B681B6803F00103002B80
:101A080044D07B685B68012B07D1474B1B6803F404
:101A18000033002B19D101237FE07B685B68022B20
:101A280003D07B685B68032B07D13F4B1B6803F02F
:101A38000073002B09D101236FE03B4B1B6803F0B7
:101A48000203002B01D1012367E0374B9B6823F089
:101A580003027B685B68344913438B60FEF72EFEF4
:101A6800F8600AE0FEF72AFE0246FB68D31A41F244
:101A78008832934201D903234FE02B4B9B6803F034
:101A88000C027B685B689B009A42EBD1254B1B6874
:101A980003F00F033A689A420CD2224B3A68D2B24A
:101AA8001A70204B1B6803F00F033A689A4201D062
:101AB800012332E07B681B6803F00403002B08D085
:101AC800194B9B6823F4E0527B68DB681649134383
:101AD8008B607B681B6803F00803002B09D0124B4E
:101AE8009B6823F460427B681B69DB000E49134343
:101AF8008B6000F021F801460B4B9B681B0903F033
:101B08000F030A4AD35C21FA03F3094A1360094B0D
:101B18001B681846FEF790FD002318461037BD468F
:101B280080BD00BF003C024000380240982B0008EE
:101B3800100A002000000020F0B585B000AF002397
:101B48007B600023FB6000233B600023BB60634B8A
:101B58009B6803F00C03042B07D0082B08D0002B3C
:101B680040F0B4805E4BBB60B3E05E4BBB60B0E05E
:101B78005A4B5B6803F03F037B60584B5B6803F488
:101B88008003002B4AD0554B5B689B094FF000043B
:101B980040F2FF114FF0000203EA010504EA0206D1
:101BA800294632464FF000034FF00004540144EA3E
:101BB800D1644B0119462246491B62EB06024FF0DD
:101BC80000034FF00004940144EA91648B015B1A0E
:101BD80064EB02044FF000014FF00002E20042EA19
:101BE8005372D9000B4614465B1944EB06044FF0B8
:101BF80000014FF00002620242EAD35259020B463A
:101C08001446184621467B684FF000041A462346BE
:101C1800FEF702FB03460C46FB6049E02F4B5B686E
:101C28009B094FF0000440F2FF114FF0000203EA55
:101C3800010504EA0206294632464FF000034FF038
:101C48000004540144EAD1644B0119462246491B59
:101C580062EB06024FF000034FF00004940144EADF
:101C680091648B015B1A64EB02044FF000014FF0A2
:101C78000002E20042EA5372D9000B4614465B198F
:101C880044EB06044FF000014FF00002A20242EAC2
:101C9800935299020B461446184621467B684FF02A
:101CA80000041A462346FEF7B7FA03460C46FB60C3
:101CB8000A4B5B681B0C03F0030301335B003B60BA
:101CC800FA683B68B2FBF3F3BB6002E0044BBB600D
:101CD80000BFBB6818461437BD46F0BD0038024047
:101CE8000024F40000127A0080B400AF024B1B6895
:101CF8001846BD4680BC7047100A002080B500AF6A
:101D0800FFF7F2FF0146054B9B689B0A03F00703A8
:101D1800034AD35C21FA03F3184680BD0038024019
:101D2800A82B000880B582B000AF78607B68002BD4
:101D380001D1012356E07B6800229A627B6893F800
:101D48005130DBB2002B06D17B68002283F850208B
:101D5800786800F0E7FD7B68022283F851207B68F1
:101D68001B681A687B681B6822F040021A607B684F
:101D78005A687B689B681A437B68DB681A437B68F0
:101D88001B691A437B685B691A437B689B6903F488
:101D980000731A437B68DB691A437B681B6A42EA53
:101DA80003017B689A6A7B681B680A431A607B6830
:101DB8009B691B0C03F004017B685A6A7B681B68EB
:101DC8000A435A607B681B68DA697B681B6822F4DF
:101DD8000062DA617B6800225A657B68012283F819
:101DE8005120002318460837BD4680BD80B58AB00B
:101DF80000AF07F1140300221A605A609A60DA6093
:101E08001A6100233B61594B1B6B584A43F010037E
:101E18001363564B1B6B03F010033B613B690023B4
:101E2800FB60524B1B6B514A43F0040313634F4B47
:101E38001B6B03F00403FB60FB680023BB604B4B88
:101E48001B6B4A4A43F080031363484B1B6B03F038
:101E58008003BB60BB6800237B60444B1B6B434A19
:101E680043F001031363414B1B6B03F001037B60D9
:101E78007B6800233B603D4B1B6B3C4A43F00803E7
:101E880013633A4B1B6B03F008033B603B6800226B
:101E980008213748FEF7A4FE012201213548FEF744
:101EA8009FFE00224FF210013348FEF799FE0423EB
:101EB8007B610023BB610023FB6107F11403194612
:101EC8002B48FEF70BFD08237B610123BB61002330
:101ED800FB6100233B6207F1140319462448FEF70F
:101EE800FDFC32237B61254BBB610023FB6107F1BD
:101EF800140319461E48FEF7F1FC01237B610123F8
:101F0800BB610023FB6100233B6207F11403194600
:101F18001848FEF7E3FC01237B61184BBB610023E3
:101F2800FB6107F1140319461548FEF7D7FC4FF279
:101F380010037B610123BB610023FB6100233B622B
:101F480007F1140319460C48FEF7C8FC20237B61EF
:101F58000023BB610023FB6107F1140319460648FF
:101F6800FEF7BCFC00BF2837BD4680BD00380240E4
:101F78000010024000080240000C0240000012104D
:101F88000000024080B500AF124B134A1A60114B93
:101F9800124A5A600F4B00229A600E4B0022DA60F8
:101FA8000C4B4FF480421A610A4B00225A61094BCC
:101FB80000229A61074B0022DA61064B00221A625E
:101FC8000448FEF725FE0346002B01D000F0ECF98B
:101FD80000BF80BD340A0020005C0040A0860100DC
:101FE80080B58AB000AF786007F1140300221A6048
:101FF8005A609A60DA601A617B681B68294A9342C2
:102008004BD100233B61284B1B6B274A43F0040349
:102018001363254B1B6B03F004033B613B690023EF
:10202800FB60214B1B6B204A43F0010313631E4BDB
:102038001B6B03F00103FB60FB684FF400737B61CB
:102048001223BB610123FB6103233B6204237B62F0
:1020580007F1140319461548FEF740FC4FF4807346
:102068007B611223BB610123FB6103233B620423D1
:102078007B6207F1140319460D48FEF72FFC002375
:10208800BB60094B1B6C084A43F400031364064BFE
:102098001B6C03F40003BB60BB6800BF2837BD4658
:1020A80080BD00BF005C00400038024000080240CC
:1020B8000000024090B58BB000AF724B3C1D0FCBB7
:1020C80084E80F000023BB6100F05EFA002000F0F6
:1020D800B5FA00237B62CCE07B6A9B0007F12802FB
:1020E800134453F8243CBB61BB69002B1CD101216C
:1020F800002000F07DF9644800F030FA0221002049
:1021080000F076F9614800F029FA0421002000F077
:102118006FF95F4800F022FA552000F0CBF94FF430
:10212800FA50FEF7D5FA9FE0BB69012B34D10321A1
:10213800182000F05DF9492000F0BCF9202000F0DB
:10214800B9F900F099FA03460221184600F050F94F
:1021580000F08AFB00F090FA0346FB82FB8A032119
:10216800184600F045F94B4800F0F8F9FB8A0333AC
:102178009BB20221184600F03BF9474800F0EEF9FF
:102188000621322000F034F9444800F0E7F94FF412
:10219800FA50FEF79DFA67E0BB69032B20D10221B4
:1021A800002000F025F93E4800F0D8F9032123204B
:1021B80000F01EF93B4800F0D1F90421182000F086
:1021C80017F9394800F0CAF90521002000F010F984
:1021D800334800F0C3F94FF4FA50FEF779FA43E0B8
:1021E800BB69022B40D100237B8404233B8400235A
:1021F800FB6129E001211E2000F0FAF82B4800F0CD
:10220800ADF93A8C7B8C1146184600F0F1F8284855
:1022180000F0A4F900F030FA03467B8400F036FAA7
:1022280003463B840520FEF753FA00F00FF901211D
:102238001E2000F0DDF81D4800F090F90120FEF79F
:1022480047FAFB690133FB61FB690E2BD2DD00F015
:10225800FDF80421282000F0CBF8164800F07EF99C
:1022680040F6B830FEF734FA00F0F0F87B6A013334
:102278007B627B6A032B7FF72FAF00BF2C37BD46ED
:1022880090BD00BF682B0008E02A0008F02A00086B
:10229800002B00080C2B0008142B0008182B000832
:1022A8001C2B0008342B0008402B0008502B00087A
:1022B8005C2B0008602B000880B500AFFEF79AF988
:1022C80000F00AF8FFF792FDFFF75CFE00F0F4FA61
:1022D800FFF7F0FEFEE7000080B594B000AF07F10D
:1022E8002003302200211846FEF73AF907F10C03C3
:1022F80000221A605A609A60DA601A610023BB6093
:10230800274B1B6C264A43F080531364244B1B6CE9
:1023180003F08053BB60BB6800237B60214B1B68C4
:10232800204A43F4404313601E4B1B6803F44043A8
:102338007B607B6801233B624FF480337B6202231E
:10234800BB634FF48003FB6304233B64C0237B64BB
:102358000423BB640823FB6407F120031846FFF736
:1023680095F80346002B01D000F01EF80F23FB6000
:1023780002233B6100237B614FF4A053BB61002320
:10238800FB6107F10C0303211846FFF7EFFA034638
:10239800002B01D000F008F800BF5037BD4680BDC3
:1023A800003802400070004080B400AF00BFBD4656
:1023B80080BC704780B584B002AF0346FB80094BF0
:1023C80000221A72FB88DAB2064B5A726423009311
:1023D8000223054A78210548FEF752FD00BF083759
:1023E800BD4680BD880A0020900A0020340A0020DB
:1023F80080B582B000AF03460A46FB801346BB8017
:10240800114AFB889380104ABB88D380BB88B033BD
:102418009BB21846FFF7CEFFFB8802339BB203F04E
:102428000F039BB21846FFF7C5FFFB8802331B1149
:102438001BB243F010031BB29BB21846FFF7BAFF5A
:1024480000BF0837BD4680BD880A002080B582B02D
:1024580000AF0023BB8000237B8000210020FFF712
:10246800C7FF0023FB8015E0202000F023F8BB887D
:102478000133BB80BB887F2B09D90023BB807B88B5
:1024880001337B807B8819460020FFF7B1FFFB886A
:102498000133FB80FB88B3F5806FE5D3044B05223D
:1024A8009A80034B0022DA8000BF0837BD4680BD02
:1024B800880A002080B588B002AF0346FB71FB791B
:1024C8003B610023FB82204B40229A720023FB824F
:1024D80014E01E4B19683A6913469B001A44FB8A9C
:1024E80013445B000B441A88FB8A0133D1B2164AA5
:1024F80013440A469A72FB8A0133FB82144B1B88E9
:10250800FA8A9A42E5D3104B00221A7443F239032F
:10251800FB604FF47A73009307230E4A78210E4824
:10252800FEF7AEFC084B9B8808339AB2064B9A809C
:10253800054B9B88802B02D9034B05229A8000BF4C
:102548001837BD4680BD00BF880A0020080A002051
:102558000C0A0020920A0020340A002080B582B0BC
:1025680000AF786007E07B681B781846FFF7A2FF8A
:102578007B6801337B607B681B78002BF3D100BF3D
:102588000837BD4680BD000080B500AF6420FEF767
:102598009FF8AE20FFF70EFFD520FFF70BFF802036
:1025A800FFF708FFA820FFF705FF3F20FFF702FF0E
:1025B800D320FFF7FFFE0020FFF7FCFE4020FFF7C7
:1025C800F9FE8D20FFF7F6FE1420FFF7F3FE20201A
:1025D800FFF7F0FE0020FFF7EDFEA120FFF7EAFE6F
:1025E800C820FFF7E7FEDA20FFF7E4FE1220FFF726
:1025F800E1FE8120FFF7DEFECF20FFF7DBFED920CA
:10260800FFF7D8FEF120FFF7D5FEDB20FFF7D2FE5B
:102618004020FFF7CFFEA420FFF7CCFEA620FFF74F
:10262800C9FEAF20FFF7C6FEFFF710FF024B0122DD
:102638001A6000BF80BD00BF880A002080B483B044
:1026480000AF0346FB71FB79002B0AD1074A084B00
:102658001B6892B21A80074B05221A80054B072285
:102668001A8000BF0C37BD4680BC704708000020A8
:10267800080A00200C0A002080B400AF024B9B8897
:102688001846BD4680BC7047880A002080B400AF59
:10269800024BDB881846BD4680BC7047880A00207C
:1026A80090B589B002AF0023FB822E4B3C1D0FCBA7
:1026B80084E80F002C4B40229A720023FB820EE024
:1026C800FA8AFB8A013307F118010A4412F8141C2C
:1026D800254A13440A469A72FB8A0133FB82FB8A15
:1026E800072BEDD94FF47A73009309231F4A7821F9
:1026F8001F48FEF7C5FB1C4B9A881B4BDB88013330
:102708009BB219461046FFF773FE0023FB8210E0C8
:10271800FB8A03F10802FB8A013307F118010A4416
:1027280012F8141C104A13440A469A72FB8A0133A1
:10273800FB82FB8A072BEBD900233B744FF47A7397
:1027480000930D23094A78210948FEF799FB064BA7
:102758009B8808339AB2044B9A8000BF1C37BD4649
:1027680090BD00BF782B0008880A0020920A00203C
:10277800340A002090B589B002AF0023FB82364BA3
:102788003C1D0FCB84E80F00344B40229A72334B28
:102798009A88324BDB8819461046FFF729FE00233A
:1027A800FB820EE0FA8AFB8A013307F118010A441A
:1027B80012F8141C294A13440A469A72FB8A0133F8
:1027C800FB82FB8A0A2BEDD900233B744FF47A7302
:1027D80000930923224A78212248FEF751FB1F4B18
:1027E8009A881E4BDB8801339BB219461046FFF7C7
:1027F800FFFD0023FB8210E0FB8A03F10802FB8A3D
:10280800013307F118010A4412F8141C134A13443F
:102818000A469A72FB8A0133FB82FB8A072BEBD9A3
:1028280000233B744FF47A7300930D230C4A7821EC
:102838000C48FEF725FB094B9B8808339AB2074BD7
:102848009A80064B9B88802B02D9044B05229A80DC
:1028580000BF1C37BD4690BD882B0008880A0020A1
:10286800920A0020340A002080B582B000AF114BD4
:102878009B88FB800F4BDB88BB80FFF711FFFB8831
:1028880008339BB2BA8811461846FFF7B1FDFFF727
:1028980071FFFB8810339AB2BB8801339BB219468B
:1028A8001046FFF7A5FD2020FFF704FE00BF0837FC
:1028B800BD4680BD880A002080B500AF174B184A76
:1028C8001A60164B4FF482725A60144B00229A60B9
:1028D800124B0022DA60114B00221A610F4B0022C2
:1028E8005A610E4B4FF400729A610C4B0022DA6168
:1028F8000A4B00221A62094B00225A62074B002237
:102908009A62064B0A22DA620448FFF70BFA03467A
:10291800002B01D0FFF748FD00BF80BD9C0A0020B6
:102928000030014080B58AB000AF786007F1140329
:1029380000221A605A609A60DA601A617B681B6824
:10294800194A93422BD100233B61184B5B6C174A01
:1029580043F480535364154B5B6C03F480533B6121
:102968003B690023FB60114B1B6B104A43F00103CA
:1029780013630E4B1B6B03F00103FB60FB68E02342
:102988007B610223BB610023FB6103233B620523B8
:102998007B6207F1140319460548FDF79FFF00BF46
:1029A8002837BD4680BD00BF0030014000380240D6
:1029B8000000024080B483B000AF00237B600F4B5F
:1029C8005B6C0E4A43F4804353640C4B5B6C03F41A
:1029D80080437B607B6800233B60084B1B6C074A85
:1029E80043F080531364054B1B6C03F080533B602A
:1029F8003B6800BF0C37BD4680BC704700380240BA
:102A080080B400AF00BFBD4680BC704780B400AF43
:102A1800FEE780B400AFFEE780B400AFFEE780B405
:102A280000AFFEE780B400AF00BFBD4680BC704772
:102A380080B400AF00BFBD4680BC704780B400AF13
:102A480000BFBD4680BC704780B500AFFDF724FECF
:102A580000BF80BD80B400AF034B4FF000629A60A6
:102A680000BFBD4680BC704700ED00E0DFF834D001
:102A7800002103E00C4B5B58435004310B480C4BCE
:102A880042189A42F6D30B4A02E0002342F8043B6C
:102A9800094B9A42F9D3FFF7DDFFFDF73DFDFFF73C
:102AA8000BFC704700000220C02B0008000000202B
:102AB800140A0020140A0020F40A0020FEE700008F
:102AC800F8B500BFF8BC08BC9E467047F8B500BF13
:082AD800F8BC08BC9E467047E3
:102AE0005348313130362D554C54494D41544500F1
:102AF00048656C6C6F20576F726C64210000000099
:102B00004D41444520464F52205543007C7C204F88
:102B1000204B00005F0000003A3D29003D3D3D3D57
:102B20003D3D3D3D3D3D3D3D3D3D3D3D3D3D3D3DD5
:102B30003D0000005468616E6B20796F75000000E5
:102B4000666F7220617474656E74696F6E21000027
:102B5000414E494D4154494F4E2100002D2D3E001C
:102B600054484520454E440000000000010000008C
:102B70000200000003000000F00C020101020C1032
:102B800001060810204080000C020101020CF00038
:102B9000804020100406010000000000000000003A
:102BA00001020304060708090000000001020304F3
:082BB000A0D6FF7F0100000028
:042BB800010200080E
:042BBC00D901000833
:102BC00010000000010000000000000000000000F4
:102BD0000000000000005F0000000000000007008F
:102BE00000000700000014007F0014007F001400A4
:102BF00024002A007F002A0012002300130008008E
:102C000064006200360049005500220050000000B8
:102C1000050003000000000000001C00220041002D
:102C200000000000410022001C0000001400080009
:102C30003E0008001400080008003E0008000800DC
:102C400000005000300000000000080008000800EC
:102C50000800080000006000600000000000200084
:102C60001000080004000200000000000000000046
:102C70000000000000005F000000000000000700EE
:102C800000000700000014007F0014007F00140003
:102C900024002A007F002A001200230013000800ED
:102CA0006400620036004900550022005000000018
:102CB000050003000000000000001C00220041008D
:102CC00000000000410022001C0000001400080069
:102CD0003E0008001400080008003E00080008003C
:102CE000000050003000000000000800080008004C
:102CF00008000800000060006000000000002000E4
:102D000010000800040002000000000000000000A5
:102D10000000000000005F0000000000000007004D
:102D200000000700000014007F0014007F00140062
:102D300024002A007F002A0012002300130008004C
:102D40006400620036004900550022005000000077
:102D5000050003000000000000001C0022004100EC
:102D600000000000410022001C00000014000800C8
:102D70003E0008001400080008003E00080008009B
:102D800000005000300000000000080008000800AB
:102D90000800080000006000600000000000200043
:102DA00010000800040002003E00510049004500E8
:102DB0003E00000042007F00400000004200610031
:102DC0005100490046002100410045004B00310000
:102DD0001800140012007F00100027004500450075
:102DE000450039003C004A0049004900300001001C
:102DF0007100090005000300360049004900490040
:102E0000360006004900490029001E000000360077
:102E100036000000000000005600360000000000F0
:102E200008001400220041000000140014001400E7
:102E300014001400000041002200140008000200E9
:102E400001005100090006003200490079004100EC
:102E50003E007E001100110011007E007F0049003D
:102E60004900490036003E00410041004100220077
:102E70007F004100410022001C007F004900490002
:102E8000490041007F0009000900090001003E00DF
:102E90004100490049007A007F000800080008004E
:102EA0007F00000041007F00410000002000400042
:102EB00041003F0001007F00080014002200410093
:102EC0007F0040004000400040007F0002000C00F6
:102ED00002007F007F000400080010007F003E0019
:102EE0004100410041003E007F0009000900090047
:102EF00006003E004100510021005E007F000900F5
:102F000019002900460046004900490049003100E7
:102F1000010001007F00010001003F00400040006F
:102F200040003F001F002000400020001F003F0025
:102F30004000380040003F00630014000800140007
:102F400063000700080070000800070061005100DE
:102F500049004500430000007F004100410000009F
:102F600002000400080010002000000041004100A1
:102F70007F00000004000200010002000400400085
:102F8000400040004000400000000100020004003A
:102F90000000200054005400540078007F004800D6
:102FA000440044003800380044004400440020003D
:102FB00038004400440048007F00380054005400AA
:102FC0005400180008007E000900010002000C00F7
:102FD0005200520052003E007F000800040004002E
:102FE0007800000044007D00400000002000400008
:102FF00044003D0000007F00100028004400000055
:10300000000041007F00400000007C000400180028
:10301000040078007C0008000400040078003800F8
:1030200044004400440038007C00140014001400E4
:10303000080008001400140018007C007C00080040
:10304000040004000800080054005400540020004C
:1030500004003F004400400020003C0040004000CD
:1030600020007C001C002000400020001C003C00D0
:103070004000300040003C004400280010002800C0
:1030800044000C005000500050003C00440064001C
:1030900054004C00440000000800360041000000CD
:1030A000000000007F00000000000000410036002A
:1030B0000800000010000800080010000800780058
:1030C00046004100460078000000000000000000BB
:1030D0000000000000005F0000000000000007008A
:1030E00000000700000014007F0014007F0014009F
:1030F00024002A007F002A00120023001300080089
:1031000064006200360049005500220050000000B3
:10311000050003000000000000001C002200410028
:1031200000000000410022001C0000001400080004
:103130003E0008001400080008003E0008000800D7
:1031400000005000300000000000080008000800E7
:10315000080008000000600060000000000020007F
:103160001000080004000200000000000000000041
:103170000000000000005F000000000000000700E9
:1031800000000700000014007F0014007F001400FE
:1031900024002A007F002A001200230013000800E8
:1031A0006400620036004900550022005000000013
:1031B000050003000000000000001C002200410088
:1031C00000000000410022001C0000001400080064
:1031D0003E0008001400080008003E000800080037
:1031E0000000500030000000000008000800080047
:1031F00008000800000060006000000000002000DF
:1032000010000800040002000000000000000000A0
:103210000000000000005F00000000000000070048
:1032200000000700000014007F0014007F0014005D
:1032300024002A007F002A00120023001300080047
:103240006400620036004900550022005000000072
:10325000050003000000000000001C0022004100E7
:1032600000000000410022001C00000014000800C3
:103270003E0008001400080008003E000800080096
:1032800000005000300000000000080008000800A6
:10329000080008000000600060000000000020003E
:1032A00010000800040002000000060009000900E8
:1032B0000600000042007F00400000004200610064
:1032C0005100490046002100410045004B003100FB
:1032D0001800140012007F00100027004500450070
:1032E000450039003C004A00490049003000010017
:1032F000710009000500030036004900490049003B
:10330000360006004900490029001E000000360072
:1033100036000000000000005600360000000000EB
:1033200008001400220041000000140014001400E2
:1033300014001400000041002200140008000200E4
:1033400001005100090006007E001100110011006B
:103350007E007F0049004900490031007F0049009C
:103360004900490036007F00010001000100030010
:1033700060003E00210021007F007F0049004900DD
:1033800049004100770008007F0008007700220014
:1033900041004900490036007F0010000800040089
:1033A0007F007F001000090004007F007F000800FC
:1033B00014002200410040003E00010001007F0097
:1033C0007F0002000C0002007F007F000800080060
:1033D00008007F003E004100410041003E007F00A8
:1033E0000100010001007F007F00090009000900C1
:1033F00006003E00410041004100220001000100A2
:103400007F000100010027004800480048003F00FD
:103410001E0021007F0021001E0063001400080030
:10342000140063003F00200020003F006000070000
:103430000800080008007F007F0040007F00400077
:103440007F003F0020003F0020007F0001007F0040
:103450004800480030007F004800300000007F0036
:1034600000007F0048004800300022004100490071
:1034700049003E007F0008003E0041003E0046003B
:103480002900190009007F00200054005400540056
:1034900078003C004A004A004A0030007C0054009A
:1034A0005400280000007C00040004000400040014
:1034B00060003800240024007C00380054005400D0
:1034C000540018006C0010007C0010006C0000001C
:1034D00044005400540028007C0020001000080024
:1034E0007C007C002100120009007C007C001000A0
:1034F00028004400000040003800040004007C0064
:103500007C000800100008007C007C001000100007
:1035100010007C00380044004400440038007C0067
:103520000400040004007C007C001400140014005B
:103530000800380044004400440000000400040077
:103540007C00040004000C005000500050003C00BF
:10355000080014007C00140008004400280010003B
:10356000280044003C00200020003C0060000C00CB
:103570001000100010007C007C0040007C00400027
:103580007C003C0020003C0020007C0004007C000B
:103590005000500020007C005000200000007C0003
:1035A00000007C005000500020002800440054001F
:1035B000540038007C0010003800440038004800F7
:1035C0005400340014007C000800002005000000B6
:0435D0000024F400DF
:0400000508002A7550
:00000001FF
